:020000040800F2
:10000000F01000202521000827020008290200081E
:100010002D0200083102000835020008000000002F
:10002000000000000000000000000000390200088D
:100030003B020008000000003D020008B940000833
:100040003F2100083F2100083F2100083F21000810
:100050003F2100083F2100083F2100083F21000800
:100060003F2100083F2100083F2100083F210008F0
:100070003F2100083F2100083F2100083F210008E0
:100080003F2100083F2100083F2100083F210008D0
:100090003F2100083F2100083F2100083F210008C0
:1000A0003F210008C74200083F2100083F21000807
:1000B000DD4200083F2100083F2100083F210008E1
:1000C0003F2100083F2100083F2100083F21000890
:1000D0003F210008F54600082B4800083149000878
:1000E0003F2100083F2100083F2100083F21000870
:1000F0003F2100083F2100083F2100083F21000860
:100100003F2100083F2100083F2100083F2100084F
:100110003F2100083F2100083F2100083F2100083F
:100120003F2100083F2100083F2100083F2100082F
:1001300000F002F800F068F80AA090E8000C824491
:100140008344AAF10107DA4501D100F05DF8AFF26E
:10015000090EBAE80F0013F0010F18BFFB1A43F0A5
:1001600001031847306A0000506A00000A444FF04B
:10017000000C10F8013B13F0070408BF10F8014B06
:100180001D1108BF10F8015B641E05D010F8016B4B
:10019000641E01F8016BF9D113F0080F1EBF10F8AF
:1001A000014BAD1C0C1B09D16D1E58BF01F801CBD2
:1001B000FAD505E014F8016B01F8016B6D1EF9D555
:1001C0009142D6D37047000000230024002500266A
:1001D000103A28BF78C1FBD8520728BF30C148BFAA
:1001E0000B607047642904F07F87002070471FB5BB
:1001F00005F0E4FC04000020002105F031FD401C66
:1002000060601FBD10B510BD05F0A0FC1146FFF7E2
:10021000EEFF03F0C4FB05F0C7FC03B4FFF7F2FFE9
:1002200003BC05F00FFD704700BFFEE700BFFEE70F
:1002300000BFFEE700BFFEE7704770477047000051
:100240000CB50020019000906B48006840F48030AD
:100250006949086000BF6848006800F400300090F9
:100260000198401C0190009818B90198B0F5A06F52
:10027000F1D16148006810F4003F02D001200090E5
:1002800001E0002000900098012842D15B480068FE
:1002900040F01000594908600846006820F003004B
:1002A00008600846006840F0020008605248406854
:1002B000514948600846406848600846406840F434
:1002C000806048600846406820F47C10486008461A
:1002D000406840F4E81048600846006840F08070CC
:1002E000086000BF4448006810F0007FFAD0424820
:1002F000406820F00300404948600846406840F0EC
:100300000200486000BF3C48406800F00C0008282C
:10031000F9D10CBD10B5FFF793FF10BD10B53648ED
:10032000006840F0010034490860084640683449DC
:1003300008403149486008460068324908402E4963
:1003400008600846006820F480200860084640687D
:1003500020F4FE0048604FF41F008860FFF7DAFFCA
:100360004FF000602849086010BD10B50021002042
:100370000022214B5B6803F00C0121B1042906D057
:10038000082928D107E0214B214C236027E01F4B8F
:100390001F4C236023E0184B5B6803F47010164B6E
:1003A0005B6803F48032022303EB904022B9194BBF
:1003B0004343174C23600DE00F4B5B6813F4003F81
:1003C00004D0144B4343124C236003E00F4B4343D0
:1003D0000F4C236003E00D4B0D4C236000BF00BFAA
:1003E000054B5B68C3F303130B4CE15C084B1B68C4
:1003F000CB40074C236010BD00100240002002409B
:100400000000FFF8FFFFF6FE08ED00E000127A00A2
:100410000000002000093D000400002010B5044643
:10042000CA48844208D10121042000F027FB0021A2
:10043000042000F023FB46E0C548844208D1012196
:10044000082000F01BFB0021082000F017FB3AE019
:10045000C048844208D10121102000F00FFB002188
:10046000102000F00BFB2EE0BB48844208D1012194
:10047000202000F003FB0021202000F0FFFA22E002
:10048000B648844208D10121402000F0F7FA00214B
:10049000402000F0F3FA16E0B148844208D101216F
:1004A000802000F0EBFA0021802000F0E7FA0AE05B
:1004B000AC48844207D10121801500F0DFFA002109
:1004C000A01500F0DBFA10BD10B50121084600F0C0
:1004D000D5FA0021012000F0D1FA10BD2DE9F0413C
:1004E000024600250026002000230024002791F862
:1004F00003C00CF00F0591F803C01CF0100F03D0DF
:1005000091F802C04CEA050591F800C0BCF1000F5B
:1005100031D0146800202BE04FF0010C0CFA00F3EE
:10052000B1F800C00CEA03069E4220D183004FF0D0
:100530000F0C0CFA03F7BC4305FA03FC4CEA040465
:1005400091F803C0BCF1280F06D14FF0010C0CFA52
:1005500000FCC2F814C00AE091F803C0BCF1480FD7
:1005600005D14FF0010C0CFA00FCC2F810C0401C81
:100570000828D1D31460B1F800C0BCF1FF0F34DDFE
:10058000546800202EE000F1080C4FF0010808FA32
:100590000CF3B1F800C00CEA03069E4221D183009F
:1005A0004FF00F0C0CFA03F7BC4305FA03FC4CEABE
:1005B000040491F803C0BCF1280F05D100F1080C28
:1005C00008FA0CF8C2F8148091F803C0BCF1480F87
:1005D00007D100F1080C4FF0010808FA0CF8C2F836
:1005E0001080401C0828CED35460BDE8F0814FF63F
:1005F000FF710180022181700421C17070470246A1
:10060000002093680B4201D0012000E000207047D9
:100610000146886880B2704702460020D3680B42CA
:1006200001D0012000E0002070470146C86880B278
:10063000704701617047416170470AB1016100E094
:1006400041617047C16070474FF480320A43826154
:100650008161826182698269704702460020424B53
:1006600018684FF68073184040EA021008433E4B6A
:10067000186070473D49C8617047F0B50A460023CD
:1006800000240021002500F00046B6F1004F02D101
:10069000354EF16901E0344E7168C0F3034583B211
:1006A00000F44016B6F5401F08D121F070612E4EBF
:1006B000766826F070662C4F7E6012E000F480169B
:1006C000B6F5801F06D1032606FA05F4A14341F0D2
:1006D000706106E0460D360103FA06F6B14341F0BB
:1006E000706122B1460D360103FA06F6314300F07F
:1006F0000046B6F1004F02D11B4EF16101E01A4EE7
:100700007160F0BD30B500228B071C0F0F2303FA78
:1007100004F2154B08338C1053F824309343124CD9
:1007200008348D1044F8253023468C1053F82430BB
:100730008C07240F00FA04F423430B4C08348D106B
:1007400044F8253030BD0A49086070470008014070
:10075000000C01400010014000140140001801404D
:10076000001C014000200140000001400000204228
:10077000DC002042DD48006840F00100DB490860F1
:1007800008464068DA490840D84948600846006889
:10079000D8490840D54908600846006820F4802000
:1007A00008600846406820F4FE0048604FF41F00CF
:1007B00088607047CD49096821F48031CB4A1160C7
:1007C0001146096821F480211160B0F5803F03D003
:1007D000B0F5802F0ED106E0C449096841F480319C
:1007E000C24A116007E0C149096841F4A021BF4A2B
:1007F000116000E000BF00BF704710B50146002245
:10080000002300204A11012A02D1B84C236806E0D7
:10081000022A02D1B54C236A01E0B44C636A01F0AC
:100820001F02012494401C4201D0012000E000205E
:1008300010BD38B5002000900024002500BF3120F5
:10084000FFF7DBFF05460098401C00900098B0F5CC
:10085000A06F01D0002DF2D03120FFF7CEFF08B1FC
:10086000012400E00024204638BD014600209F4AB4
:10087000106820F0F80040EAC100106070479E49FF
:100880000860704702460020984B586820F47C109E
:1008900042EA01031843954B586070479649086631
:1008A000704701460020914A506820F00300084339
:1008B000506070478D48406800F00C00704701465A
:1008C00000208A4A506820F0F000084350607047CA
:1008D00001460020854A506820F4E06008435060DB
:1008E000704701460020814A506820F4605040EA79
:1008F000C1005060704729B17C4A527A02437B4B59
:100900005A7204E0794A527A8243784B5A7270479D
:100910007A490860704701460020744A506820F404
:1009200040400843506070470021754A11706F4A7B
:1009300082F82010012802D0042808D103E0012108
:100940006F4A117004E005216D4A117000E000BF8C
:1009500000BF70476B49086070476449096A0143EA
:10096000624A11627047674944390860704730B580
:1009700000210022002400235C4D6D6805F00C016D
:1009800021B1042905D0082923D105E05E4D056079
:1009900022E05D4D05601FE0544D6D6805F4701256
:1009A000524D6D6805F48034022505EB92421CB966
:1009B000564D554305600BE04C4D6D6815F4003FF6
:1009C00003D0524D5543056002E04F4D554305603D
:1009D00002E04D4D056000BF00BF444D6D6805F05D
:1009E000F00109094A4D6B5C0568DD4045603F4DEB
:1009F0006D6805F4E061090A454D6B5C4568DD40B2
:100A000085603A4D6D6805F46051C90A404D6B5CD4
:100A10004568DD40C560354D6D6805F44041890B82
:100A20003C4D6B5CC568B5FBF3F5056130BD29B184
:100A30002E4A526902432D4B5A6104E02B4A5269F7
:100A400082432A4B5A61704729B1284A926902436E
:100A5000264B9A6104E0254A92698243234B9A61AE
:100A6000704729B1214AD2690243204BDA6104E080
:100A70001E4AD26982431D4BDA61704729B11B4A75
:100A8000D2680243194BDA6004E0184AD268824304
:100A9000164BDA60704729B1144A12690243134BAE
:100AA0001A6104E0114A12698243104B1A617047BF
:100AB00014494039086070470F49C86470470B49B2
:100AC000C87170470948406A40F080700749486221
:100AD000704701460020054A92680A4201D0012071
:100AE00000E0002070470149887270470010024002
:100AF0000000FFF8FFFFF6FE00004242D80042422D
:100B0000201002408004424200127A0000093D0099
:100B1000140000202400002031490143314A1160B3
:100B2000704770B5002100230F22C4780CB32D4C00
:100B3000246804F4E064C4F5E064210AC1F104030C
:100B4000CA40447804FA03F184781440214309012F
:100B5000254C0678A155047804F01F050124AC400B
:100B600005786D114FF0E02606EB8505C5F80041CC
:100B700009E0047804F01F050124AC401B4D067801
:100B8000761145F8264070BD194A0A400243154BBC
:100B90001B1F1A60704739B1124A121D12680243B6
:100BA000104B1B1D1A6006E00E4A121D126882438C
:100BB0000C4B1B1D1A607047042808D14FF0E02130
:100BC000096941F004014FF0E022116107E04FF0A4
:100BD000E021096921F004014FF0E0221161704722
:100BE0000000FA050CED00E000E400E080E100E028
:100BF00080FFFF1F10B50446FB48844209D1012144
:100C00008803FFF73BFF00214FF48040FFF736FFDA
:100C100032E0F648844209D101214804FFF73BFF46
:100C200000214FF40030FFF736FF25E0F048844202
:100C300009D101218804FFF72EFF00214FF4802005
:100C4000FFF729FF18E0EB48844209D10121C804CD
:100C5000FFF721FF00214FF40020FFF71CFF0BE0FE
:100C6000E548844208D101210805FFF714FF00215F
:100C70004FF48010FFF70FFF10BD2DE9F04786B04D
:100C800005460E460024A24600BFA1460027B089B3
:100C900000B100BF2F462C8A4CF6FF700440F0884C
:100CA00004432C82AC894EF6F3100440B08831899D
:100CB0000843718908430443AC81AC8A4FF6FF4076
:100CC0000440B0890443AC8201A8FFF750FEC64837
:100CD000874202D1DDF810A001E0DDF80CA0A88960
:100CE00010F4004F08D00AEBCA0000EB0A1031687C
:100CF0004900B0FBF1F807E00AEBCA0000EB0A106C
:100D000031688900B0FBF1F86420B8FBF0F0040111
:100D10002009642101FB1089A88910F4004F08D034
:100D2000322000EBC900B0FBF1F000F007000443F3
:100D300008E0322000EB09106421B0FBF1F000F074
:100D40000F0004432C8106B0BDE8F0874FF4165124
:100D5000016000218180C18001810C21418100213D
:100D60008181704710B502460020108A4FF2FF03C0
:100D700018400B884C8823438C882343CC8823431A
:100D80001843108210BD0021018041808180C18004
:100D9000704721B1828942F40052828104E0828945
:100DA0004DF6FF731A4082817047F0B50346002468
:100DB000002600250020A1F510676A3F00D100BF82
:100DC0001846C1F3421401F01F06012707FA06F581
:100DD000012C01D10C3004E0022C01D1103000E0D4
:100DE00014301AB107682F43076002E00768AF4369
:100DF0000760F0BD1AB1838A0B43838202E0838AC5
:100E00008B4383827047028A4FF6F0731A40028246
:100E1000028A0A430282704782894FF2FF731A40A6
:100E2000828182890A438281704721B1828942F09E
:100E30000202828104E082894FF6FD731A408281AA
:100E40007047028A4FF6DF731A400282028A0A4311
:100E50000282704721B1028A42F48042028204E099
:100E6000028A4BF6FF731A4002827047C1F30802F0
:100E70008280704701468888C0F3080070478189E6
:100E800041F0010181817047028BD2B20283028B53
:100E900042EA012202837047028B02F47F420283FE
:100EA000028B0A430283704721B1828A42F02002FA
:100EB000828204E0828A4FF6DF731A408282704792
:100EC00021B1828A42F01002828204E0828A4FF6C7
:100ED000EF731A408282704721B1828A42F0080281
:100EE000828204E0828A4FF6F7731A40828270474A
:100EF00021B1828942F40042828103E08289C2F3F7
:100F00000E028281704721B1828A42F4006282829D
:100F100004E0828A4FF2FF731A4082827047828A0D
:100F20004FF6FB731A408282828A0A43828270479C
:100F300021B1828A42F00202828204E0828A4FF664
:100F4000FD731A408282704702460020B1F5007F8F
:100F500000D100BF13880B4201D0012000E0002027
:100F6000704701F40072B2F5007F00D100BFCA43A0
:100F70000280704770B5024600240023002500203F
:100F8000A1F510666A3E00D100BFC1F3421501F021
:100F90001F03012606FA03F3012D02D1968933407F
:100FA00006E0022D02D1168A334001E0968A3340D2
:100FB0000C12012606FA04F41688344013B10CB161
:100FC000012000E0002070BD10B500220023A1F533
:100FD00010646A3C00D100BF0A1201249440A3B2FD
:100FE000DC43048010BD0000003801400044004094
:100FF00000480040004C00400050004010B504463E
:10100000FE48844208D10121C014FFF737FD0021BA
:10101000E014FFF733FDC4E0B4F1804F08D10121A3
:101020000846FFF738FD00210120FFF734FDB8E046
:10103000F348844208D101210220FFF72CFD002152
:101040000220FFF728FDACE0EE48844208D10121E0
:101050000420FFF720FD00210420FFF71CFDA0E085
:10106000E948844208D101210820FFF714FD00213E
:101070000820FFF710FD94E0E448844208D10121E4
:101080001020FFF708FD00211020FFF704FD88E085
:10109000DF48844208D101212020FFF7FCFC002119
:1010A0002020FFF7F8FC7CE0DA48844208D10121D7
:1010B0004014FFF7E3FC00216014FFF7DFFC70E051
:1010C000D548844209D10121C804FFF7D7FC00218B
:1010D0004FF40020FFF7D2FC63E0D048844209D1EE
:1010E00001210805FFF7CAFC00214FF48010FFF72B
:1010F000C5FC56E0CA48844209D101214805FFF7E2
:10110000BDFC00214FF40010FFF7B8FC49E0C548D2
:10111000844208D101214020FFF7BDFC002140207E
:10112000FFF7B9FC3DE0C048844208D1012180208E
:10113000FFF7B1FC00218020FFF7ADFC31E0BB4898
:10114000844208D101218015FFF7A5FC0021A015DC
:10115000FFF7A1FC25E0B648844209D1012108042B
:10116000FFF78CFC00214FF48030FFF787FC18E07C
:10117000B048844209D101214804FFF77FFC0021D7
:101180004FF40030FFF77AFC0BE0AB48844208D103
:1011900001218804FFF772FC00214FF48020FFF743
:1011A0006DFC10BD00220288944B98420ED0994BE2
:1011B00098420BD0B0F1804F08D0914B984205D0A7
:1011C000904B984202D0904B984204D14FF68F73C7
:1011D0001A404B881A438D4B984207D08C4B98424B
:1011E00004D04FF6FF431A40CB881A4302808B8805
:1011F00083850B880385814B98420BD0854B9842A1
:1012000008D08B4B984205D08A4B984202D08A4B2B
:10121000984201D10B7A038601238382704770B50F
:10122000002400220023058C4FF6FE76354005840D
:10123000028C8388048B4FF68F752C40B51E2C4092
:101240000D882C43751E2A400D892A434D882A4358
:101250006A4DA8420BD06F4DA84208D0744DA842E9
:1012600005D0744DA84202D0734DA84213D14FF659
:10127000F7752A404D892A434FF6FB752A408D8821
:101280002A434FF6FF652B404FF6FF552B408D89C3
:101290002B43CD892B4383800483CD8885860284AC
:1012A00070BD70B5002400220023058C4FF6EF7648
:1012B00035400584028C8388048B48F6FF752C40EA
:1012C0004FF6FF452C400D884FF6FF7606EA0525C0
:1012D0002C434FF6DF752A400D8906EA05152A438F
:1012E0004D8806EA05152A43444DA84202D0494DCF
:1012F000A8421DD14FF67F752A404D894FF6FF76E3
:1013000006EA05152A434FF6BF752A408D8806EA7E
:1013100005152A434FF6FF352B404FF2FF752B4042
:101320008D8906EA85052B43CD8906EA85052B4381
:1013300083800483CD880587028470BD70B5002446
:1013400000220023058C4FF6FF6635400584028C91
:101350008388848B4FF68F752C404FF6FC752C409C
:101360000D882C434FF6FF552A400D894FF6FF7626
:1013700006EA05252A434D8806EA05252A431F4D1E
:10138000A84202D0234DA8421DD14FF2FF752A403A
:101390004D894FF6FF7606EA05252A434FF6FF35BD
:1013A0002A408D8806EA05252A434EF6FF752B4014
:1013B0004DF6FF752B408D8906EA05152B43CD8927
:1013C00006EA05152B4383808483CD8885870284B4
:1013D00070BD70B5002200230024058C4EF6FF7608
:1013E00035400584038C8488828B48F6FF752A403B
:1013F0004FF6FF452A400D8820E00000002C0140F8
:101400000004004000080040000C004000100040B4
:101410000014004000340140004C014000500140E5
:101420000054014000180040001C00400020004013
:101430000040014000440140004801404FF6FF7663
:1014400006EA05252A434DF6FF752B400D8906EA6D
:1014500005352B434D8806EA05352B43FA4DA84246
:1014600002D0FA4DA84208D14BF6FF752C408D8969
:101470004FF6FF7606EA85152C4384808283CD885B
:10148000A0F84050038470BD828B4FF2FF331A40A6
:101490008283828B4FF6FF7303EA01231A43828310
:1014A0007047F0B50C461546002200210026078C37
:1014B0004EF6FF7C07EA0C070784828B018C4FF6FF
:1014C000FF7707EA043640F6FF473A404FF6FF77CA
:1014D00007EA05273A434FF6FF7707EA03373A430F
:1014E000D94FB8420ED0D94FB8420BD0B0F1804F8F
:1014F00008D0D74FB84205D0D64FB84202D0D64F09
:10150000B84206D14DF6FF77394046F4805739434B
:1015100005E047F6FF57394044F48057394382834A
:101520000184F0BD828B4FF6F3731A408283828B65
:101530000A4382837047F0B50C461546002200210D
:101540000026078C4FF6FF6C07EA0C070784828B96
:10155000018C4FF6FF7707EA04264FF60C773A40E6
:101560004FF6FF7707EA03172F433A43B64FB842C7
:101570000ED0B64FB8420BD0B0F1804F08D0B44F68
:10158000B84205D0B34FB84202D0B34FB84206D1EB
:101590004FF6FF57394046F48077394305E04FF264
:1015A000FF57394044F48077394382830184F0BD8A
:1015B000028B4FF2FF331A400283028B4FF6FF7308
:1015C00003EA01231A4302837047F0B50C4615461F
:1015D000002200210026078C4FF6EF7C07EA0C075B
:1015E0000784028B018C4FF6FF7707EA041640F65A
:1015F000FF473A404FF6FF7707EA03373A434FF683
:10160000FF7707EA05273A438F4FB8420ED08F4F36
:10161000B8420BD0B0F1804F08D08D4FB84205D002
:101620008C4FB84202D08C4FB84206D14FF6DF77CC
:10163000394046F01007394305E04FF65F773940EF
:1016400044F01007394302830184F0BD028B4FF64A
:10165000F3731A400283028B0A4302837047F0B58A
:101660000C46154600220021068C4FF6FE773E40C0
:101670000684028B018C4FF60C7632407E1C06EA03
:1016800003162E433243704EB0420ED06F4EB0421E
:101690000BD0B0F1804F08D06D4EB04205D06D4EEA
:1016A000B04202D06C4EB04206D14FF6FD763140CA
:1016B00044F00106314305E04FF6F576314044F041
:1016C0000106314302830184F0BD70B505460C4626
:1016D0005D4885420ED05D4885420BD0B5F1804F04
:1016E00008D05B48854205D05A48854202D05A4806
:1016F000854200D100E000BF208850B92389A2882C
:1017000061882846FFF7ABFFE1882846FFF79EFF78
:1017100025E0208804280AD12389A28861882846E8
:10172000FFF753FFE1882846FFF742FF17E02088C4
:1017300008280AD12389A28861882846FFF7FBFE82
:10174000E1882846FFF7EEFE09E02389A288618838
:101750002846FFF7A6FEE1882846FFF795FE70BDF4
:101760002DE9F04105460C4600260127608808B99E
:10177000022600E00026A088012801D1022700E00F
:1017800001272088A0B92389A28861882846FFF70D
:1017900066FFE1882846FFF759FF23893A4631461C
:1017A0002846FFF712FFE1882846FFF701FF13E004
:1017B0002389A28861882846FFF707FFE188284629
:1017C000FFF7F6FE23893A4631462846FFF747FFE2
:1017D000E1882846FFF73AFFBDE8F0810A884B8888
:1017E0001A438B881A43CB881A430B891A434B89B7
:1017F0001A438B891A43A0F8442070474FF6FF71B3
:10180000818000210180C1804180017270470021E8
:10181000018041808180C180018141818181C181BC
:101820007047002101804180012181800021C18019
:10183000018170470021018041808180C180018148
:101840004181818170470000002C0140003401403B
:101850000004004000080040000C004021B1028854
:1018600042F00102028004E002884FF6FE731A4043
:101870000280704731B1B0F8442042F40042A0F831
:10188000442005E0B0F84420C2F30E02A0F8442042
:1018900070471AB183890B43838102E083898B43AC
:1018A000838170478182704741EA0203A0F8483083
:1018B00070471AB183890B43838102E083898B438C
:1018C0008381704701894FF6F8721140018170479A
:1018D0000A46002101894FF68F7319401143018197
:1018E000704730B504460D4629462046FFF7F0FF05
:1018F000208940F00700208130BD2DE9F0410446E9
:101900000D4616461F46602D06D13B460122314644
:101910002046FFF75AFE05E03B46012231462046AD
:10192000FFF79DFE29462046FFF7D2FF208940F0B1
:1019300007002081BDE8F08130B50C460021018907
:10194000C9B24FF6FF7505EA032515432543294320
:10195000018130BD2DE9F04105460E4617469846F7
:10196000002443463A4631462846FFF7E5FF2C89D6
:101970004FF6F870044044F007044FF68F700440AF
:1019800044F070042C81BDE8F081F0B504460D46AA
:1019900016461F463B46324629462046FFF7CCFFF7
:1019A000208940F480402081F0BD0185828270470B
:1019B0000A46002101884FF68F73194011430180B8
:1019C0007047F0B50C4615461E4600210022002344
:1019D0000189028B038C4FF6F877394021434FF68B
:1019E000FC473A4040F201173A434FF6DD773B405F
:1019F0004FF6FF7707EA06172F433B430181028327
:101A00000384F0BD0A460021018B4FF68F73194005
:101A10001143018370470A460021018B48F6FF738A
:101A200019404FF6FF7303EA0223194301837047FD
:101A30000A460021818B4FF68F7319401143818331
:101A400070470A460021818B48F6FF7319404FF614
:101A5000FF7303EA022319438183704721B102888F
:101A600042F08002028004E002884FF67F731A4041
:101A70000280704721B1828842F00402828004E033
:101A800082884FF6FB731A408280704721B18288AA
:101A900042F00802828004E082884FF6F7731A4011
:101AA0008280704721B1828842F00102828004E086
:101AB00082884FF6FE731A40828070470A460021E2
:101AC000018B4FF6F77319401143018370470A46A3
:101AD0000021018B4FF2FF7319404FF6FF7303EAA9
:101AE00002231943018370470A460021818B4FF678
:101AF000F77319401143818370470A460021818B97
:101B00004FF2FF7319404FF6FF7303EA02231943A4
:101B1000818370470A460021018B4FF6FB73194001
:101B20001143018370470A460021018B4FF6FF33B2
:101B300019404FF6FF7303EA0223194301837047EC
:101B40000A460021818B4FF6FB73194011438183B4
:101B500070470A460021818B4FF6FF3319404FF63C
:101B6000FF7303EA02231943818370470A46002169
:101B7000018B4FF67F7319401143018370470A466A
:101B80000021018BC1F30E014FF6FF7303EA02231C
:101B90001943018370470A460021818B4FF67F73FA
:101BA00019401143818370470A460021818BC1F39C
:101BB0000E014FF6FF7303EA022319438183704736
:101BC0000A460021018C4FF6FD7319401143018430
:101BD00070470A460021018C4FF6F77319401143F4
:101BE000018470470A460021018C4FF6DF731940CB
:101BF0004FF6FF7303EA02131943018470470A4644
:101C00000021018C4FF67F7319404FF6FF7303EAF2
:101C100002131943018470470A460021018C4FF6D4
:101C2000FF5319404FF6FF7303EA0223194301845F
:101C300070470A460021018C4FF2FF7319404FF69E
:101C4000FF7303EA02231943018470470A46002107
:101C5000018C4DF6FF7319404FF6FF7303EA023310
:101C600019430184704730B5002301248C40A3B28E
:101C7000048C9C430484048C02FA01F5ADB22C431D
:101C8000048430BD30B5002304248C40A3B2048CFE
:101C90009C430484048C02FA01F5ADB22C43048405
:101CA00030BD70B5034600200024184618300125C9
:101CB0008D40ACB21D8CA5431D8409B1082909D102
:101CC00000EB6100056825F07005056005681543A7
:101CD00005600EE00D1FC5F34E052844056825F488
:101CE000E045056005684FF6FF7606EA02263543B3
:101CF000056070BD21B1028842F00202028004E05A
:101D000002884FF6FD731A400280704721B10288A5
:101D100042F00402028004E002884FF6FB731A408E
:101D20000280704721B1828842F08002828004E004
:101D300082884FF67F731A408280704702884FF680
:101D4000F7731A40028002880A4302807047828833
:101D50004FF68F731A40828082880A4382807047D0
:101D600002894FF6F8731A40028102890A43028100
:101D7000704702894FF67F731A40028102890A4335
:101D800002817047818470478185704781867047E2
:101D90000187704781877047A0F84010704702881C
:101DA0004FF6FF431A40028002880A4302807047C0
:101DB0000146888E70470146088F70470146888F1C
:101DC00070470146B1F8400070470146888C704763
:101DD0000146088D704702460020138A0B4201D04D
:101DE000012000E000207047CA430282704730B5EE
:101DF0000246002000230024158A05EA0103958984
:101E000005EA010413B10CB1012000E0002030BD4F
:101E1000CA4302827047000010B50446BE4884429F
:101E200008D101218014FEF729FE0021A014FEF73D
:101E300025FE16E0B948844208D101210014FEF7BE
:101E40002AFE00212014FEF726FE0AE0B448844250
:101E500007D10121C013FEF71EFE0021E013FEF79B
:101E60001AFE10BD10B50022028802F441520B8800
:101E70004C8823438C882343CC8823430C892343F9
:101E80004C8923438C892343CC8923431A43028002
:101E9000838B4FF2FF74234083830B8A038210BD30
:101EA0002DE9F04F85B005460C464FF0000902279A
:101EB0004FF000084FF0010B0026B246A88B4FF2FE
:101EC00040010840A88302202884B5F81C90A0682F
:101ED000022801D100BF38E0A08810B94FF0010BF3
:101EE00001E04FF0020B8D48854200D100E000BFB9
:101EF0006846FEF73CFDDDF800A0E088B0F5007F05
:101F00000AD14FEA1A2000EB80004000A168B0FB24
:101F1000F1F0401D86B20BE04FEA4B10BAFBF0F037
:101F200000EB80004000A168B0FBF1F0401D86B2DC
:101F30000A20B6FBF0F606F00108A6EB0800C0F395
:101F40004F074FF6FF7000EA0828022F01DBFF2F32
:101F500002DD02274FF00008E08840EA080038431D
:101F60002884A088A1890843618808432188084300
:101F700040F4006040EA0909A5F81C9005B0BDE8EE
:101F8000F08F0021018041808180C18001814181E9
:101F90008181C18107210182704700210180418038
:101FA0008180C1800221816000218181704721B13F
:101FB000028842F04002028004E002884FF6BF73BC
:101FC0001A400280704721B1828B42F48062828382
:101FD00004E0828B4FF6FF331A408283704730B59E
:101FE000002400230C110125A540ABB21AB185884D
:101FF0001D43858002E085889D43858030BD1AB1F0
:1020000083880B43838002E083888B4383807047FF
:1020100081817047014688897047A1F57E42FF3A69
:1020200004D0028842F48072028004E002884FF6F5
:10203000FF631A400280704721B1828842F0040297
:10204000828004E082884FF6FB731A4082807047DA
:1020500002884FF2FF731A40028002880A4302800E
:102060007047018841F480510180704721B1028896
:1020700042F40052028004E002884DF6FF731A40D9
:102080000280704702460020012901D0108B00E039
:10209000908A70470146088A7047B1F5804F04D195
:1020A000028842F48042028004E002884BF6FF730B
:1020B0001A40028070470246002013890B4201D06B
:1020C000012000E000207047CA4302817047F0B54C
:1020D0000246002000240023002501F00F070126FE
:1020E000BE40B4B20B1101269E40B3B2968806EAF8
:1020F00003051689264202D00DB1012000E0002020
:10210000F0BD10B5002201F00F040123A3409AB2E4
:10211000D343038110BD000000300140003800406F
:10212000003C00400948804709480047FEE7FEE7B9
:10213000FEE7FEE7FEE7FEE7FEE7FEE7FEE7FEE777
:1021400004480549054A064B704700001D03000876
:1021500031010008F00A0020F0100020F00C0020EF
:10216000F00C002070B504460D46B4F57A7F02DB12
:1021700040F2E73406E014F57A7F01DCFE4C01E022
:1021800004B90124B5F57A7F02DB40F2E73506E0B9
:1021900015F57A7F01DCF84D01E005B901256442AF
:1021A0006D42F648007894FBF0F4F448007895FB13
:1021B000F0F5232C03DA14F1230F00DD0024232D86
:1021C00003DA15F1230F00DD0025ED480068A04279
:1021D00003D1EC480068A8421DD0EB480178007894
:1021E000401CE94A107003290BDA05F2DC5304F2B3
:1021F000DC52E6A1EE4802F039FFED4802F04AFC5D
:1022000006E0DF480460DF4805600020DE49087012
:102210000020E849087004B195B9E64801780078D3
:10222000401CE44A107003290ADA05F2DC5304F278
:10223000DC52D6A1DE4802F019FFDD4802F02AFC8C
:1022400070BD10B5DC484078732800D010BDDA4965
:10225000097AC1F17F0001F0C3FC052802DA7F2072
:10226000D5490872D4498979C1F17F0001F0B8FCE1
:10227000052802DA7F20D0498871CF48007AC0F162
:102280007F00C000CD490860CB488079C0F17F0055
:10229000C000CB490860C9480068CA49096888423B
:1022A00005D1C7480068C849096888420DD0C448AC
:1022B0000168C2480068FFF755FFC0480068C1497F
:1022C0000860BF480068C049086000BFBEE72DE94C
:1022D000F04F8DB004460026204602F0DBFB20784C
:1022E00023287CD120795028FBD160795328F8D15C
:1022F000A0794328F5D1E0794B28F2D1207B212821
:10230000EFD16078303864214843A178303901EB4F
:10231000810100EB4101E0783038084485B2607AF1
:10232000303864214843A17A303901EB810100EB58
:102330004101E07A30380F1817F5FA7F60DBB7F506
:10234000FA7F5DDC082D5BDA207A2B2803D0207A17
:102350002D2800D17F42384603F0CAFECDE908019E
:102360009A4951F8250003F0C3FECDE904019849CC
:1023700001EB0511886804F023F8964A964BCDE9E5
:10238000000103F0B5FCCDE90201DDE9042303F00F
:102390002DFFCDE90601DDE9082303F0A9FCCDE915
:1023A0000A0103F073FC8246884840F825708B4987
:1023B000504604F03BFA02D2DFF820A206E088493A
:1023C000504604F033F901D2DFF814A2504604F06D
:1023D000E1F87F4901EB051148807D4800E012E0FB
:1023E00000EB0510C0F808A00020794901EB0511A9
:1023F000C86001F06BFE7B49086001207A490870D3
:102400000DB0BDE8F08F207823282FD120795028F7
:102410002CD16079442829D1A079532826D1E0799C
:10242000542823D1207A212820D1607830386421A3
:102430004843A178303901EB810100EB4101E0789C
:102440003038084485B20020614901EB0511C860AD
:102450005F4901EB0511886804F09CF85C4901EBC9
:1024600005114880204602F0EDFAC9E72BE1A05D96
:10247000232813D10025701C86B208E0A05D05EB6F
:10248000850100EB4100303885B2701C86B2A05D3A
:102490000028EBD0A05D5028E8D0EFE7A05D5028E1
:1024A0001ED14FF00009701C86B212E0A05D04F04E
:1024B000A9F84E490B90484604F0ECF80A900B99A5
:1024C00003F0AAFF83464A4904F0E2F98146701CF2
:1024D00086B2A05D0028C9D0A05D5428C6D0E5E72B
:1024E000A05D542846D14FF00008701C86B209E068
:1024F000A05D08EB880100EB410030381FFA80F83E
:10250000701C86B2A05D10B1A05D2128F0D1082D0D
:1025100031DA3849484604F089F82CD83049484621
:1025200004F084F927D842F21070804523DC284952
:1025300001EB05118868494603F0DCFF13D12449FB
:1025400001EB0511886803F03BFF2B4A2B4BCDE9CB
:10255000080103F04BFECDE90A0103F097FB1C498B
:1025600001EB05118860194951F8250004F032F893
:10257000834645E0A5E0A6E019FCFFFF2800002007
:10258000E4000020E8000020EC0000207B23303035
:1025900036502530346454303030302123303037D9
:1025A00050253034645430303030217D000000003C
:1025B000B8010020ED0000202C010020D0000020F8
:1025C000D4000020D8000020DC000020440A0020B5
:1025D00038010020D655815A0C1EA63F00101C451C
:1025E0000000FA43340000203000002000002041A9
:1025F0000000404200401C4548E17A14AE47C13F0C
:10260000494603F009FF8146FE49484604F00EF9A9
:1026100001D2DFF8F093FC49484604F007F801D2F4
:10262000DFF8E493B8F1140F11DA484603F0B2FF73
:10263000F64901EB05114880F44800EB0510C0F89D
:1026400008900020F14901EB0511C8603BE04846C5
:1026500003F0A0FFED4901EB05114880EB4800EBCA
:102660000510A0F80480E94901EB0511888803F002
:1026700056FD0022E64BCDE9040103F0E1FBCDE974
:102680000801E24901EB0511488803F0BBFF059002
:10269000DE4800EB05108168059804F0F9F88346E0
:1026A00003F08EFECDE90601DDE9082303F0C8FB47
:1026B000CDE90A0103F0EAFAD44901EB0511C8603B
:1026C00001E0701C86B2A05D00287FF4D0AE00BF90
:1026D00096E610B504464FF48061CE4802F038FF0C
:1026E000E1017F22CB4802F03AFBCA48FFF7EFFD39
:1026F000C84802F0A7F910BD04E003788B4200D16E
:102700000270401C0378002BF7D17047014600226D
:1027100015E00878472811D1491C07E0087802EB3A
:10272000820300EB4300303882B2491C087823282A
:1027300002D008782428F1D110467047491C087847
:102740000028E6D1401EF8E710B5C022B249B348D0
:1027500002F06AFB10BDF8B5044600256078242815
:102760000CD1A078212809D10021AC4880F888102C
:10277000FFF7EAFFAAA002F065F9F8BD6078242807
:1027800033D1AC48AC4BAD4AADA10090204602F02D
:1027900085FD48B3A9480068A7490968884208D15F
:1027A000A6480068C10180229C48083002F0D7FA90
:1027B00011E081219948083002F0ECFE611C974835
:1027C000083002F031FE204602F052FE801E93498E
:1027D000083100220A542521904880F88810FFF71C
:1027E000B3FF9CA002F02EF9C7E72046FFF78EFF4B
:1027F0000546681C02D0A079232803D09AA002F0D5
:1028000021F9BAE77B223C212046FFF775FF7D22A4
:102810003E212046FFF770FF204602F029FE86B2D7
:10282000E9013246204602F0FFFA90A002F00AF9D0
:1028300000BFA2E702680B6803600A60704713B527
:10284000DDE90001884203DD01A96846FFF7F2FFD8
:1028500013E04FF480616F4802F07AFE0098C101E6
:1028600080226C4802F07BFA6A4802F0EBF880A004
:1028700002F0E8F80098401C0090DDE90001884271
:10288000E7DD1CBD012080F3138800BF00BF79483D
:10289000006800F4E06078490843001D754908604D
:1028A000BFF3408F00BF00BFFEE72DE9F14FAEB090
:1028B0002E9802F0C7F871A12E9801F04CF98146CC
:1028C000B9F1000F21D001206E49087000240FE0FB
:1028D00000204E4901EB0411C8604C4901EB041182
:1028E000886803F057FE494901EB04114880641CD5
:1028F000082CEDDB64A002F0CDF800210846FFF7BC
:1029000031FCFF2063490870A3E363A12E9801F016
:1029100022F98146B9F1000F26D02DAA60A12E9888
:1029200002F0BCFC0028EFD0002038492D9A01EBC2
:102930000211C86035492D9A01EB0211886803F035
:1029400029FE32492D9A01EB0211488057A15B48BC
:102950002D9A02F08BFB594802F09CF84FF48061ED
:10296000564802F0F5FD74E355A12E9801F0F3F8F6
:102970008146B9F1000F01D0FFF784FF52A12E98D4
:1029800001F0E9F88146B9F1000F0CD02BAB2CAA6D
:102990004FA12E9802F082FC0028B5D0DDE92B1063
:1029A000FFF74DFF55E34DA12E9801F0D4F8814675
:1029B000B9F1000F0DD02CAA4AA12E9802F06EFC9E
:1029C0000028A1D02C98FFF784FE01202D49087023
:1029D0003FE347A12E9801F0BEF88146B9F1000F00
:1029E0000ED01448144B154A43A100902E9802F0C3
:1029F00055FC002888D0114800680F49096883E019
:102A000095E0000000101C450000FA43380100204A
:102A100000003440B805002000F87F00B80900200D
:102A200040434C454152205052455F434D44204F56
:102A30004B210000100100200C01002008010020A3
:102A40003C244447543A25642D25642C2564213EBA
:102A50000000000040534554205052455F434D4410
:102A6000204F4B2100000000450000004100000005
:102A70000D0A00000CED00E00000FA052444535458
:102A800021000000150100202332353550445354F5
:102A90002100000014010020244453543A00000097
:102AA000244453543A256421000000002325303388
:102AB0006450445354210D0A00000000B801002066
:102AC0002452535421000000244347503A00000090
:102AD000244347503A25642D25642100244447535C
:102AE0003A000000244447533A25642100000000C6
:102AF000244447543A000000244447543A25642DA6
:102B000025642C256421000088420BD0F948006818
:102B1000F9490860F9480068F94908600020F94956
:102B2000087096E2F3480068FFF7D3FD91E2F6A142
:102B30002E9801F010F88146B9F1000F1AD02BAB96
:102B40002CAAF3A12E9802F0A9FB0028E9D0DDE918
:102B50002B10FFF707FB2B9800F2DC532C9800F2A8
:102B6000DC52AFF2D851ED4802F080FAEB4801F0A8
:102B700091FF6EE2EAA12E9800F0EDFF8146B9F1D7
:102B8000000F15D0E8480078401EE7490870084655
:102B9000007808B9012008700021052001F04AF8EA
:102BA000642000F0B4FF0121052001F043F850E259
:102BB000DEA12E9800F0CFFF8146B9F1000F16D0AC
:102BC000D9480078401CD849087008460078042885
:102BD00001D1032008700021052001F02BF86420AA
:102BE00000F095FF0121052001F024F831E2D1A188
:102BF0002E9800F0B0FF8146B9F1000F05D04FF4D8
:102C00007A710846FFF7AEFA23E2CCA12E9800F0C5
:102C1000A2FF8146B9F1000F04D0CA490846FFF768
:102C2000A1FA16E2C8A12E9800F095FF8146B9F1ED
:102C3000000F04D0C3494842FFF794FA09E2C4A147
:102C40002E9800F088FF8146B9F1000F05D04FF4AF
:102C50007A714842FFF786FAFBE1BFA12E9800F097
:102C60007AFF8146B9F1000F42D0BDA001F012FFFA
:102C700000243AE0BF4830F8240000F2DC50BE499E
:102C800001EB041148804FF4FA60BB4901EB0411D9
:102C90008880B94901EB0411888803F040FA07469F
:102CA0000022B64B03F0CCF805460E46B24901EBC4
:102CB0000411488803F0A6FC8046AF4800EB0410DE
:102CC0008168404603F0E4FD074603F079FB2A469D
:102CD0003346CDE9000103F0B3F8824602F0D6FF97
:102CE000A54901EB0411C860641C082CC2DBB0E1EB
:102CF000A3A12E9800F02FFF8146B9F1000F57D005
:102D000001208049087096A001F0C4FE00243AE03A
:102D1000984830F8240000F2DC50974901EB041188
:102D200048804FF4FA60944901EB0411888092497D
:102D300001EB0411888803F0F2F9054600228F4B5D
:102D400003F07EF8074688468B4901EB041148885A
:102D500003F058FC0646884800EB041081683046B2
:102D600003F096FD054603F02BFB82463A464346A8
:102D700003F066F8CDE9000102F088FF7E4901EB1F
:102D80000411C860641C082CC2DB8148007818B1AB
:102D90000120FFF79EFC02E00220FFF79AFC7C482E
:102DA000007808B9012000E000207949087050E15E
:102DB00078A12E9800F0CFFE8146B9F1000F04D023
:102DC00000210846FFF7CEF943E175A12E9800F0E7
:102DD000C2FE8146B9F1000F3AD066488C3873A123
:102DE000426803A802F042F9002414E0624901EBB2
:102DF0000411886803F0B2FB05466E4800682B4654
:102E000022466DA10090454802F030F9434903A8DD
:102E100002F04DFB641C062CE8DB6CA103A802F059
:102E200046FB54488C384068401C52498C394860F5
:102E3000FFF78AFC03A801F005FE03A8FFF78BFC4F
:102E400064A001F0FFFD0121642000F079FF00E1A2
:102E500064A12E9800F07FFE8146B9F1000F10D0DA
:102E6000002044498C394860FFF76EFC03A8FFF747
:102E700072FC61A001F0E6FD0121642000F060FF1A
:102E8000E7E063A12E9800F066FE8146B9F1000FDD
:102E90002FD002AA62A1674802F000FA40B3354879
:102EA0008C38406810B92FB0BDE8F08F0020114970
:102EB000086030488C384068401E5F4908600F4900
:102EC000029808600B4800685B490968884204D092
:102ED000084800680849086003E006480068FFF7F2
:102EE000F8FB06480068064908600020054908709C
:102EF000AFE0A3E008010020000100201001002045
:102F00000401002015010020244443523A0000002F
:102F1000244443523A25642C25642100B801002042
:102F20002444574121000000280000202444574435
:102F300021000000244341525F46210024434152B6
:102F40005F42210018FCFFFF244341525F4C2100E7
:102F5000244341525F52210024444A522100000080
:102F60002332353550313530305432303030210D48
:102F70000A000000440A002038010020000034400C
:102F8000244A58425F5357495443482100000000E7
:102F9000F4000020244341525F53544F502100005D
:102FA00024444A5F5245434F524421003C47253058
:102FB000346400002C000020232530336450253079
:102FC0003464542530346421000000004230303035
:102FD000213E000024444A5F5245434F5244204F53
:102FE0004B21000024444A5F5245434F52445F4303
:102FF0004C4541522100000024444A5F5245434F52
:1030000052445F434C454152204F4B210000000089
:1030100024444A5F5245434F52445F444F3A0000B4
:1030200024444A5F5245434F52445F444F3A25750A
:1030300021000000B80500200C010020F8A12E9806
:1030400000F089FD8146B9F1000F02D0F6A001F031
:10305000F9FC00BF27E72DE9F04107460E460025A1
:103060007878397800EB0120F0490880F048008832
:10307000098888427ED0ED480088EE490880EB48F8
:103080000088EB4909880840E84908800024EBE003
:103090000120A040E549098808426CD10120A040E8
:1030A000E349098808427FD04FF48061E24802F08A
:1030B0004FFA732E0DD1E14951F8240002F0D8F9EE
:1030C0008046DE4850F824104246DB4802F0FBF907
:1030D00010E0412E0DD1DA4951F8240002F0C8F970
:1030E0008046D74850F824104246D34802F0EBF906
:1030F00000E0B7E0D3A1D04800F02DFDC5B21DB16E
:103100000021681ECC4A1154CFA1CB4800F023FD0A
:10311000F0B1002240F22551CC48FDF746FE0020D8
:10312000CB490870C4490B31CA4802F07DF9C9493E
:10313000C14802F079F90120C5490870012240F226
:103140002551C248FDF731FE0120C349087026E031
:10315000C2A1B94800F0FFFC08B3002240F225519B
:10316000BA48FDF722FE0020B9490870B2490B3178
:10317000B84802E08AE074E016E002F055F9B5497B
:10318000AD4802F051F90120B1490870012240F226
:103190002551AE48FDF709FE0220AF4908704FF6F1
:1031A000FF70A34908805CE04FF48061A24802F000
:1031B000CFF9732E0DD1A14951F8240002F058F92E
:1031C00080469E4850F8241042469B4802F07BF906
:1031D00010E0412E0DD19A4951F8240002F048F92F
:1031E0008046974850F824104246934802F06BF905
:1031F00000E037E093A1904800F0ADFCC5B285B384
:103200008D49481990A100F0A6FC90B18A48411957
:10321000904802F009F98F4802F02AF9401E8D49C2
:1032200000220A54844802F0FFF88348FFF73DFB70
:1032300017E08149481989A100F08DFC88B17E48CA
:103240004119844802F0F0F8824802F011F9401E5A
:10325000804900220A54784802F0E6F87648FFF7E1
:1032600036F800BF601CC4B2102CFFF611AF7148D5
:1032700000886F4908800021052000F0DBFC0A204F
:1032800000F045FC0121052000F0D4FCBDE8F081F0
:1032900010B5734800787349C978884205D17048E1
:1032A00040787049097988420BD06E484178C01C3B
:1032B000FFF7D1FE6B48C07869490870694800790A
:1032C000487010BD10B500F001FF67490968401A49
:1032D000142800D210BD00F0F9FE6349086061486F
:1032E00000F06CFE00BFF5E710B5604800780028DC
:1032F00020D000F0EBFE5E490968401AB0F5FA7F75
:1033000019D95C480078B0B900F0E0FE584908606F
:103310004FF4165001F03AF8012240F22551564878
:10332000FDF743FD55A001F0C1FB52480078401C59
:103330005049087066E000F0C9FE4D490968401A1E
:10334000B0F5FA7F11D94B48007801280DD100F073
:10335000BDFE474908604FF4E13001F017F84548D9
:103360000078401C434908704CE000F0AFFE404933
:103370000968401AB0F5FA7F10D93E480078022853
:103380000CD100F0A3FE3A4908603FA001F08EFB8B
:1033900038480078401C3749087033E000F096FE4A
:1033A00033490968401AB0F5FA7F10D931480078DE
:1033B00003280CD100F08AFE2D49086039A001F0E5
:1033C00075FB2C480078401C2A4908701AE000F070
:1033D0007DFE27490968401AB0F5FA7F12D92548C1
:1033E000007804280ED100F071FE2149086034A055
:1033F00001F05CFB1F480078401C1E49087000204B
:103400001A49087010BD10B504460021204603F08B
:103410000DFA01D2204610BD84F00040FBE7000009
:10342000244745544121000041414100F000002063
:10343000EE000020F2000020B80500203800002037
:10344000780000205E0000002400000000380140E9
:1034500016010020B8010020170100202300000001
:10346000CC0000202C010020C8000020C10000205A
:10347000C4000020C20000200048004041542B42FC
:10348000415544380D0A000041542B5350504E41D1
:103490004D455A4C2D53544D33324254322E300D3B
:1034A0000A00000041542B4C454E414D455A4C2DCD
:1034B00053544D33324254342E300D0A0000000074
:1034C00041542B4E414D455A4C2D53544D333242AD
:1034D00054322E300D0A00002DE9F0470446FA4917
:1034E00001EB0411C868002103F004F84BD0F64842
:1034F00000EB0410458840F6C410854202DD40F61A
:10350000BA1504E0B5F5FA7F01DA4FF4FA75EE4A20
:1035100002EB0412D168EC4A02EB0412D06802F00C
:103520007BFF8046FFF76FFF0646284603F052F800
:103530008146E54800EB04108168484603F0A8F98D
:103540008046FFF760FF0746314603F06FF80CD85E
:10355000284603F03FF8DC4901EB041188600020A5
:10356000D94901EB0411C8600DE0D74A02EB0412FF
:10357000D168D54A02EB0412906802F04DFFD2499F
:1035800001EB04118860BDE8F08710B500F09EFDE6
:10359000CE490968401A142815D300F097FD401C45
:1035A000CA4908600020CA49087008E0C848007885
:1035B000FFF792FFC6480078401CC5490870C44810
:1035C00000780828F2DB10BD70B5002500240FE05C
:1035D000BD4800EB0410C168284602F01DFF0546F7
:1035E0000021284602F086FF01D0012070BD641C36
:1035F000082CEDDB0020F9E710B5FFF7E5FF002808
:1036000050D1B448007800284CD1B3480068FFF787
:1036100060F8B2480068B2490968884221DAAE48C9
:103620000068AF490968884215D1AC480068AA49CA
:103630000860AC48006868B1AB480068401EAA4901
:1036400008600846006828B90120A2490870A7A0B0
:1036500001F0F8F910BDA0480068401C9E490860C0
:1036600020E09D4800689E490968884215D19B4822
:103670000068994908609B48006868B19A480068EA
:10368000401E994908600846006828B90120914900
:10369000087096A001F0D6F9DCE78F480068401E5C
:1036A0008D49086000BFD5E710B59348007860B336
:1036B000924801F0C7F992480078012803D18F4859
:1036C000FFF7F3F816E08E480078022803D18B4804
:1036D000FEF7FDFD0EE08A480078032803D18748F5
:1036E000FEF7F5FD06E086480078042802D18348FD
:1036F000FFF731F80020824908707F4908700122E5
:1037000040F225517F48FDF750FB10BD10B5002158
:10371000052000F08FFA00210D2000F08BFA6420C4
:1037200000F0F5F90121052000F084FA01210D20B7
:1037300000F080FA642000F0EAF90021052000F092
:1037400079FA00210D2000F075FA642000F0DFF90D
:103750000121052000F06EFA01210D2000F06AFA27
:10376000642000F0D4F90021052000F063FA002164
:103770000D2000F05FFA642000F0C9F90121052056
:1037800000F058FA01210D2000F054FA642000F0F6
:10379000BEF910BD62B6704710B5472144F62060EF
:1037A00000F0CBFC10BD10B500205749086026E0A2
:1037B00056485549096830F8210000F2DC5042496A
:1037C000514A126801EB021148803F494E4A126883
:1037D00001EB0211488802F015FF3B494A4A126882
:1037E00001EB0211886000203749474A126801EB5B
:1037F0000211C86044480068401C434908604248C0
:1038000000680828D4DB41488C3890F888002528C7
:1038100033D13E498439394801F006FE3B488C38A3
:10382000007A242804D139488438FFF73EF824E090
:1038300010203549086016E030213048324A1268BD
:103840008154024630480068401C11542E480068DC
:10385000801C11542C480068C01C11542A48006870
:103860000F3029490860254801F002FE2649096801
:103870008842E1D82148FEF72AFD10BD10B500F0BE
:103880000FFC10BD10B54FF4E13000F07FFD0122B8
:1038900040F225511E48FDF788FA1EA001F006F9F6
:1038A00020A001F0F7F810BD10B54FF4E13000F0A2
:1038B0000EFE012240F225511248FDF776FA1DA0B6
:1038C00001F0C0F810BD000038010020F800002011
:1038D000F500002015010020000100200801002053
:1038E0000C01002010010020040100204047726FED
:1038F0007570446F6E65210016010020B805002028
:103900001701002000380140FC000020440A00207C
:1039100000480040756172743320636865636B20F2
:103920006F6B210023323535503135303054323011
:1039300030302100756172743120636865636B20DB
:103940006F6B210010B500F0EAFA10BD10B501F060
:1039500007F9C0225449554801F001FA10BD10B5CD
:1039600000F031FA10BD10B500F0D7F901210520A3
:1039700000F060F910BD10B500F048F901210D20EC
:1039800000F058F910BD10B500F036F910BD10B5B3
:1039900000F0CAF810BD10B500F046FB10BDFFF7EF
:1039A000FAFFFFF7F4FFFFF7EEFFFFF7E4FFFFF783
:1039B000DAFFFFF7D4FFFFF7C9FFFFF7C3FFFFF7F9
:1039C00073FFFFF75FFFFFF759FFFFF7ECFEFFF70D
:1039D000E3FEFFF7DFFEFFF799FE0DE0FFF764FE61
:1039E000FFF70AFEFFF7D1FDFFF77EFCFFF76AFC49
:1039F000FFF74EFCFEF725FCF0E7704710B5EF210E
:103A00004FF47A7000F0CCFBEF214FF47A7000F0A5
:103A100010FC00210846FEF7A5FB10BD10B54FF4C1
:103A2000E13000F003FD012240F225512048FDF76E
:103A3000BCF920A001F01AF810BD10B500F046FB4B
:103A400020490968401AB0F57A7F14D900F03EFB8E
:103A50001C4908601C48007820B100210D2000F0AE
:103A6000E9F803E001210D2000F0E4F816480078A1
:103A7000C0431549087010BD10B5144800780128DE
:103A800008D000F023FB12490968401A114909685F
:103A9000884208D900200D49087000F017FB0C4936
:103AA0000860FEF751FE10BD00F87F00B809002045
:103AB00000440040756172743220636865636B2056
:103AC0006F6B2100BC000020C000002030000020EF
:103AD00034000020E0000020704700BF0100A0F18A
:103AE000010290B2FAD1704700BF0100A0F10102BB
:103AF00090B2FAD1704700B5034602E00620FFF706
:103B0000ECFF1800A3F101018BB2F7D100BD10B595
:103B1000044603E04FF47A70FFF7EDFF2000A4F1B4
:103B200001018CB2F6D110BD002011E040F2DC5151
:103B30002F4A02EB001251802E492D4A02EB00124F
:103B4000916000212A4A02EB0012D160411CC8B2E8
:103B50000828EBDB704770B504460B4621461A4631
:103B600019E008781578A84214D10AE011F8015B31
:103B700012F8016BB54204D0D01A081A411C1A463B
:103B800002E010780028F1D100BF107818B9081BA6
:103B900080B270BD491C08780028E2D100BFF8E768
:103BA000F0B50C46002117E00A464B1C07E050F820
:103BB000226050F82370BE4200DD1A465B1CA3420F
:103BC000F5DB8A4207D050F8225050F8216040F8C7
:103BD000226040F82150491C661E8E42E4DCF0BD94
:103BE0000146002901DD084670474842FCE7000015
:103BF000380100200080BB4410B501210D20FCF7E6
:103C000023FF0121AF48FCF738FD10BD08B50121A5
:103C10000820FCF719FF4FF40050ADF80000102009
:103C20008DF8030003208DF802006946A648FCF7D2
:103C300055FC08BD70B504460D4635B10120A040C5
:103C400081B2A148FCF7F5FC05E00120A04081B25B
:103C50009D48FCF7F0FC70BD10B59C48007820B181
:103C600000210D20FFF7E6FF03E001210D20FFF703
:103C7000E1FF96480078C0439449087010BD08B52C
:103C800001210820FCF7E0FE40F20330ADF800000F
:103C900010208DF8030003208DF8020069468A4841
:103CA000FCF71CFC08BD70B505460C46012D06D07E
:103CB000022D0FD0032D18D0042D2CD120E024B1DB
:103CC00001210020FFF7B6FF03E000210846FFF7BF
:103CD000B1FF20E024B101210846FFF7ABFF03E06C
:103CE00000210120FFF7A6FF15E024B101210920E2
:103CF000FFF7A0FF03E000210920FFF79BFF0AE088
:103D000024B101210820FFF795FF03E000210820DE
:103D1000FFF790FF00BF00BF70BD08B5012108206C
:103D2000FCF792FE2020ADF8000010208DF8030073
:103D300003208DF8020069466348FCF7CFFB08BDFD
:103D400070B504460D46002616E000210520FFF759
:103D500071FF00210D20FFF76DFFA0B2FFF7D7FE26
:103D600001210520FFF766FF01210D20FFF762FF0B
:103D7000A0B2FFF7CCFE761CAE42E6D370BD70B5A4
:103D800004460D4635B10120A04081B25048FCF7F1
:103D900050FC05E00120A04081B24D48FCF74BFCEF
:103DA00070BD70B504460D4635B10120A04081B20A
:103DB0004848FCF73EFC05E00120A04081B24548A0
:103DC000FCF739FC70BD08B501210C20FCF73CFE66
:103DD0004FF40140ADF8000003208DF802001020E0
:103DE0008DF8030069463A48FCF778FB4FF476708B
:103DF000ADF8000003208DF8020010208DF80300BC
:103E000069463148FCF76AFB08BD70B504460D46AB
:103E1000062C22D2DFE804F003080D12171C2946F5
:103E20000320FFF707FF19E029460820FFF702FFEC
:103E300014E029460920FFF7FDFE0FE02946062081
:103E4000FFF7F8FE0AE029460720FFF7F3FE05E03A
:103E500029460420FFF7EEFE00E000BF00BF70BD62
:103E600008B501210C20FCF7EFFD4FF40060ADF820
:103E7000000048208DF8030069461348FCF72EFB2C
:103E80000220ADF8000048208DF803006946104874
:103E9000FCF724FB08BD70B505460C4600260EE075
:103EA00000210520FFF7C6FEA0B2FFF730FE01217A
:103EB0000520FFF7BFFEA0B2FFF729FE761CAE4239
:103EC000EEDB70BD00023000000C01401801002044
:103ED00000080140001001401CB501210520FCF73D
:103EE000B3FD01214E48FCF7C8FB4FF4E040ADF8AC
:103EF000040010208DF8070003208DF8060001A9AA
:103F00004848FCF7EBFA4FF40040ADF800002820D9
:103F10008DF8030069464348FCF7E0FA1CBD10B574
:103F2000FFF7DAFF4FF400513E48FCF782FB4FF4F5
:103F300080413C48FCF77DFB4FF480513948FCF749
:103F400078FB10BD2DE9F04105462F4600260024E0
:103F50002FE00120A040384205D04FF48041314885
:103F6000FCF767FB04E04FF480412E48FCF763FB4D
:103F70004FF480512B48FCF75CFB0A20FFF7BBFD98
:103F80004FF480512748FCF756FB0A20FFF7B3FD9A
:103F90004FF480512348FCF74CFB4FF4004121487B
:103FA000FCF72DFB18B10120A0403043C6B2601CC5
:103FB000C4B2082CCDDB3046BDE8F08110B5044614
:103FC0004FF400511748FCF736FB0120FFF7BAFF0A
:103FD00020704220FFF7B6FF60702078FFF7B2FF35
:103FE000A0702078FFF7AEFFE0702078FFF7AAFFFF
:103FF00020712078FFF7A6FF60712078FFF7A2FFFD
:10400000A0712078FFF79EFFE0712078FFF79AFFFC
:1040100020724FF400510348FCF70BFB10BD000069
:10402000000430000008014010B5FCF7A3FB4FF47A
:104030008030FCF7BFFBFCF7FCFB044600BF002C04
:10404000FDD00020FCF73BFC4FF48060FCF740FC07
:104050000020FCF746FC4FF4E0114FF48030FCF7F1
:1040600011FC0120FCF71AFC00BF3920FCF7C5FB4E
:104070000028FAD00220FCF714FC00BFFCF71AFC61
:104080000828FBD110BD000010B5044600212046D1
:1040900002F0CCFB01D2204610BD84F00040FBE7CB
:1040A00000204FF0E0218861AF4848610846006970
:1040B00040F007000861704700204FF0E021886160
:1040C000AA480068401CA94908607047A7480068D2
:1040D00070477FB504460D460121C802FCF7B4FCC9
:1040E000ADF80840681E80B2ADF804000020ADF8BD
:1040F0000A00ADF806008DF80C0001A99C48FDF7F8
:1041000051F801219A48FDF76FFE0122412198489C
:10411000FDF7BFFB19208DF8000000208DF801008D
:104120008DF8020001208DF803006846FCF7F9FCC9
:1041300001218F48FDF792FB7FBD7FB505460C46F8
:1041400001210846FCF78DFCADF80850ADF804409D
:104150000020ADF80A00ADF8060001A94FF080403C
:10416000FDF720F800214FF08040FDF777FC012299
:1041700011469007FDF78DFB1C208DF800000120F3
:104180008DF8010002208DF8020001208DF8030057
:104190006846FCF7C6FC01218807FDF75FFB7FBD81
:1041A00030B589B005460C4601210220FCF759FCC8
:1041B00001210820FCF748FC0320ADF8200018205E
:1041C0008DF8230003208DF8220008A96948FCF728
:1041D00085F9ADF81850ADF814400020ADF81A007C
:1041E000ADF8160005A96448FCF7DCFF6020ADF8C7
:1041F00004000120ADF806000020ADF80C004FF4DB
:10420000FA70ADF80A0001A95B48FDF797F808219C
:104210005948FDF769FC01A95748FDF7DAF808216C
:104220005548FDF76AFC01215348FDF717FB09B01B
:1042300030BD30B589B005460C4601210420FCF79D
:1042400010FC01210820FCF7FFFB4FF44070ADF893
:10425000200018208DF8230003208DF8220008A9E3
:104260004448FCF73BF9ADF81850ADF81440002075
:10427000ADF81A00ADF8160005A94048FCF792FF0A
:104280006020ADF804000120ADF806000020ADF874
:104290000C004FF4FA70ADF80A0001A93748FDF799
:1042A0004DF808213548FDF71FFC01A93348FDF7FB
:1042B00090F808213148FDF720FC01212F48FDF737
:1042C000CDFA09B030BD10B501212948FDF78FFDA9
:1042D00018B101212648FDF79BFD10BD10B5012145
:1042E0008807FDF784FD00283DD001218807FDF7F0
:1042F0008FFD23480078082802D10020204908704B
:104300002048007880B920491D4A127801EB02113B
:10431000886802F03FF94FF08041888501211848F4
:104320000078FFF772FD16E01749154A127801EB85
:104330000211886802F02EF940F6C4110C1A090720
:104340008C8500210E480078FFF75FFD0C4800784F
:10435000401C0B4908700B48007808B9012000E0A8
:1043600000200849087010BD401901001C01002000
:10437000002C0140000C01400004004000080040F7
:1043800021010020200100203801002010B586B056
:10439000044601210820FCF757FB01218804FCF7A3
:1043A00060FB4FF48060ADF8140018208DF8170002
:1043B00003208DF8160005A9F748FCF78FF84FF495
:1043C0000060ADF8140004208DF8170005A9F2482C
:1043D000FCF784F801940020ADF80800ADF80A005D
:1043E000ADF80C00ADF810000C20ADF80E0001A9DE
:1043F000EA48FCF742FC27208DF8000001208DF8E8
:10440000010003208DF8020001208DF803006846AA
:10441000FCF787FB012240F22551E048FCF7C5FC80
:104420000121DE48FCF7B5FC06B010BD10B586B022
:10443000044601210420FCF707FB01214804FCF796
:1044400010FBD748FCF7D6FB0420ADF8140003207E
:104450008DF8160018208DF8170005A9D148FCF733
:104460003DF80820ADF8140004208DF8170005A9C8
:10447000CC48FCF733F801940020ADF80800ADF803
:104480000A00ADF80C00ADF810000C20ADF80E00DD
:1044900001A9C348FCF7F1FB26208DF8000001209C
:1044A0008DF8010002208DF8020001208DF8030034
:1044B0006846FCF736FB012240F22551B848FCF76C
:1044C00074FC0121B648FCF764FC06B010BD10B5C1
:1044D00088B00446012144F20400FCF7B5FAB24862
:1044E000FCF788FB4FF40070ADF81C0003208DF83A
:1044F0001E0018208DF81F0007A9AA48FBF7EEFF41
:104500004FF48060ADF81C0004208DF81F0007A94F
:10451000A448FBF7E3FF03940020ADF81000ADF8CA
:104520001200ADF81400ADF818000C20ADF816001C
:104530000020ADF80400ADF806004FF40070ADF8AF
:1045400008000020ADF80A0001A99748FCF70AFC12
:1045500003A99548FCF791FB4FF4E060FCF7DCFA07
:1045600025208DF8000001208DF801008DF8020053
:104570008DF803006846FCF7D4FA012240F2255179
:104580008948FCF712FC01218748FCF702FC08B0BF
:1045900010BD10B54FF4E130FFF799FF012240F252
:1045A00025518148FCF701FC4FF4E130FFF73EFF55
:1045B000012240F225517A48FCF7F7FB4FF4E13035
:1045C000FFF7E4FE012240F225517448FCF7EDFBB1
:1045D00062B610BD10B5044621467348FCF746FC90
:1045E00010BD70B505460E46002400BF0CE0295DE5
:1045F0006D48FCF73BFC00BF80216B48FCF7A4FC36
:104600000028F9D0601C84B2B442F0DB70BD10B554
:1046100004460BE014F8011B6348FCF727FC00BFBD
:1046200080216148FCF790FC0028F9D02078002810
:10463000F0D110BD10B5044621465948FCF716FCD0
:1046400010BD70B505460E46002400BF0CE0295D84
:104650005348FCF70BFC00BF80215148FCF774FC69
:104660000028F9D0601C84B2B442F0DB70BD10B5F4
:1046700004460BE014F8011B4948FCF7F7FB00BFA8
:1046800080214748FCF760FC0028F9D020780028FA
:10469000F0D110BD10B5044621464048FCF7E6FBBA
:1046A00010BD70B505460E46002400BF0CE0295D24
:1046B0003A48FCF7DBFB00BF80213848FCF744FC9C
:1046C0000028F9D0601C84B2B442F0DB70BD10B594
:1046D00004460BE014F8011B3048FCF7C7FB00BF91
:1046E00080212E48FCF730FC0028F9D020780028E3
:1046F000F0D110BD10B540F225512B48FCF724FC39
:10470000012879D140F225512748FCF75DFC264865
:10471000FCF7B0FBC4B22548007808B1002010BDFA
:104720003C2C06D104202249087000202149088031
:104730001CE01F480078C8B9242C03D101201C4973
:10474000087010E0232C03D10220194908700AE0F8
:104750007B2C03D103201649087004E03C2C02D1C5
:10476000042013490870002012490880114801886C
:104770000088401C0F4A10800F4844540C480078B1
:1047800004281BD13E2C19D100200B4912888854D3
:104790000120064908703EE0000C0140004800403E
:1047A000004400400008014000380140160100208C
:1047B0001701002022010020B8050020C54800781C
:1047C00001280AD1212C08D10020C349C34A1288EC
:1047D00088540120C24908701DE0BE4800780228B4
:1047E0000BD1212C09D10021BB48BC4A128881542D
:1047F0000120BB4908700EE015E0B6480078032898
:1048000009D17D2C07D10020B349B44A12888854BD
:104810000120B3490870B1480088B0F5806F02DB11
:104820000020AE490880002079E710B540F22551FC
:10483000AC48FCF789FB012878D140F22551A94802
:10484000FCF7C2FBA748FCF715FBC4B23C2C06D111
:104850000420A04908700020A34908801CE09D485E
:104860000078C8B9242C03D101209A49087010E0BF
:10487000232C03D10220974908700AE07B2C03D136
:1048800003209449087004E03C2C02D10420914993
:104890000870002094490880934801880088401CD3
:1048A000914A10808C4844548A480078042809D1E1
:1048B0003E2C07D10020884912888854012088495D
:1048C00008702BE08348007801280AD1212C08D1F8
:1048D00000218148844A128881540120804908704F
:1048E0001CE07C48007802280AD1212C08D1002144
:1048F00079487D4A128881540120794908700DE079
:1049000074480078032809D17D2C07D10020724912
:10491000754A1288885401207149087072480088CD
:10492000B0F5806F02DB00206F490880002010BDC9
:1049300010B540F225516D48FCF706FB01287FD1E8
:1049400040F225516948FCF73FFB6848FCF792FAB2
:10495000C4B26348007808B1002010BD3C2C06D1D9
:1049600004205C4908700020614908801CE0594817
:104970000078C8B9242C03D101205649087010E0F2
:10498000232C03D10220534908700AE07B2C03D169
:1049900003205049087004E03C2C02D104204D490A
:1049A0000870002052490880514801880088401C46
:1049B0004F4A10804848445446480078042809D19A
:1049C0003E2C07D1002044491288885401204449D4
:1049D00008702BE03F48007801280AD1212C08D12B
:1049E00000203D49424A1288885401203C49087001
:1049F0001CE03848007802280AD1212C08D1002177
:104A000035483B4A128881540120354908700DE031
:104A100030480078032809D17D2C07D100202E4989
:104A2000334A1288885401202D4908703048008884
:104A3000B0F5806F04DB00202D4900E000E0088025
:104A400000208AE710B504462046FFF7E0FD10BDC0
:104A500070B504460D4629462046FFF7C2FD70BDDD
:104A600010B504462046FFF7B5FD10BD10B504464D
:104A70002046FFF7FCFD10BD70B504460D462946E3
:104A80002046FFF7DEFD70BD10B504462046FFF757
:104A9000D1FD10BD10B50446012011490870204613
:104AA000FFF715FE00200E49087010BD10B5044632
:104AB0002046FFF70CFE10BD70B504460D46294692
:104AC0002046FFF7EEFD70BD10B504462046FFF707
:104AD000E1FD10BD17010020B805002022010020D3
:104AE000160100200044004024010020004800403E
:104AF00026010020002106E00A2100BF0A00A1F1E2
:104B0000010399B2FAD10200A0F1010398B2F3D1E6
:104B1000704770B50546002405E0601CC4B2C82C7F
:104B200001DD002070BD0221FA48FDF7C4FA00281B
:104B3000F3D02946F748FDF76BFA002405E0601C26
:104B4000C4B2C82C01DD0020ECE70121F148FDF7DB
:104B5000B2FA0028F3D0EF48FDF75CFAC0B2E1E703
:104B600008B501210820FBF76FFF4FF48050ADF826
:104B7000000010208DF8030003208DF80200694624
:104B8000E548FBF7ABFC4FF48051E348FBF751FDE0
:104B90004FF42040ADF8000018208DF8030069465E
:104BA000DD48FBF79BFC4FF48040ADF80000482047
:104BB0008DF803006946D848FBF790FC4FF420417C
:104BC000D548FBF736FD01218803FBF74AFF00209B
:104BD000D24908804FF482704880002088800220EB
:104BE000C880012008814002488138208881002047
:104BF000C88107200882C748FDF734F90121C5485C
:104C0000FDF7D5F9FF20FFF784FF08BD10B5302070
:104C1000C2498881BF48FDF725F90121BD48FDF74C
:104C2000C6F910BD10B50820BC498881B948FDF708
:104C300019F90121B748FDF7BAF910BD10B50024E4
:104C400000224FF48051B448FBF7F7FC9020FFF7A7
:104C500060FF0020FFF75DFF0020FFF75AFF0020F4
:104C6000FFF757FFFF20FFF754FF44EA0024FF201F
:104C7000FFF74FFF044301221103A748FBF7DDFCB8
:104C8000204610BD10B5002400224FF48051A248E8
:104C9000FBF7D3FC0520FFF73CFFFF20FFF739FFB0
:104CA0000446012211039C48FBF7C7FC204610BDB7
:104CB00010B5044600224FF480519748FBF7BDFC25
:104CC0000120FFF726FF2046FFF723FF01221103F3
:104CD0009148FBF7B2FC10BD10B500224FF4805193
:104CE0008D48FBF7AAFC0620FFF713FF01221103F2
:104CF0008948FBF7A2FC10BD10B500224FF480518B
:104D00008548FBF79AFC0420FFF703FF01221103FB
:104D10008148FBF792FC10BD10B5044600224FF409
:104D200080517D48FBF789FC0320FFF7F2FEC4F3B6
:104D30000740FFF7EEFEC4F30720FFF7EAFEE0B2FC
:104D4000FFF7E7FEFF20FFF7E4FE75490870012238
:104D500011037148FBF771FC7148007810BD2DE913
:104D6000F04106460C46174600224FF480516A482F
:104D7000FBF763FC0320FFF7CCFEC4F30740FFF70B
:104D8000C8FEC4F30720FFF7C4FEE0B2FFF7C1FE80
:104D9000002505E0FF20FFF7BCFE7055681C85B2BA
:104DA000BD42F7DB012211035B48FBF746FCBDE87F
:104DB000F08110B500BFFFF765FF10F0010FFAD1C9
:104DC00010BD2DE9F04107460C461646E0B2C0F58D
:104DD0008078464500DD4646FFF77EFF00224FF40F
:104DE00080514D48FBF729FC0220FFF792FEC4F3E7
:104DF0000740FFF78EFEC4F30720FFF78AFEE0B2FC
:104E0000FFF787FE002504E0785DFFF782FE681C4F
:104E100085B2B542F8DB012211033F48FBF70DFCD8
:104E2000FFF7C7FFBDE8F0812DE9F04107460E46C8
:104E30001446F0B2C0F58075AC4200DC254612E0A5
:104E40002A4631463846FFF7BCFFAC4200D10BE0A2
:104E50002F442E44601B84B2B4F5807F02DD4FF4F2
:104E6000807500E02546EBE700BFBDE8F0812DE945
:104E7000F04107460C461546C4F30B00C0F58056BA
:104E8000B54200DD35462A4621463846FFF7CCFFBD
:104E9000BDE8F08110B504462403FFF71DFFFFF7BE
:104EA00088FF00224FF480511B48FBF7C6FB2020EF
:104EB000FFF72FFEC4F30740FFF72BFEC4F30720D4
:104EC000FFF727FEE0B2FFF724FE0122110312488C
:104ED000FBF7B3FBFFF76DFF10BD2DE9F04381B089
:104EE000ADF5805D80460F4616464FF00009C7F3CA
:104EF0000B00C0F58054A64200DC34464CE04FEA7B
:104F000017394FEA09314FF4805201A8FFF727FF04
:104F1000002511E000380040000C0140780A002014
:104F200028010020C7F30B00284401A9085CFF28D2
:104F300000D003E0681C85B2A542F3DB00BFA542A8
:104F400017DA4846FFF7A6FF002508E018F8050025
:104F5000C7F30B01294401AA5054681C85B2A5422D
:104F6000F4DB4FEA09314FF4805201A8FFF77FFFCD
:104F700004E0224639464046FFF779FFA64200D1B9
:104F80000BE0A0442744301B86B2B6F5805F02DDFB
:104F90004FF4805400E03446B1E700BF01B00DF596
:104FA000805DBDE8F08370B505460C46FFF794FEC2
:104FB00000224FF480512C48FBF73FFB0220FFF703
:104FC000A8FDC4F30740FFF7A4FDC4F30720FFF7D3
:104FD000A0FDE0B2FFF79DFD2846FFF79AFD0122F4
:104FE00011032148FBF729FBFFF7E3FE70BD10B565
:104FF000FFF772FEFFF7DDFE00224FF480511A48E2
:10500000FBF71BFBC720FFF784FD012211031648A5
:10501000FBF713FBFFF7CDFE10BD10B500224FF4D8
:1050200080511148FBF709FBB920FFF772FD0122FF
:1050300011030D48FBF701FB0320FFF75BFD10BDDB
:1050400010B500224FF480510748FBF7F6FAAB2069
:10505000FFF75FFD012211030348FBF7EEFA03207F
:10506000FFF748FD10BD0000000C01400FB41CB557
:10507000074B06AA7B4469460090059800F015FB93
:105080000020694600F024FB1CBC5DF814FB000006
:105090005906000070B5044685690068C10601D54F
:1050A000302600E02026C00708D070BDD4E90121D9
:1050B00030469047206A00F1010020626D1EF5D550
:1050C00070BD70B5044685690078C00708D170BD11
:1050D000D4E9012120209047206A00F101002062DC
:1050E0006D1EF5D570BD00002DE9F0410646002487
:1050F00010687529314616A511D0AFF3008000283D
:1051000003DAC0F1000013A507E031688A0701D572
:1051100011A502E0490704D510A5012401E0AFF371
:10512000008000210A2306F1240707E0B0FBF3F218
:1051300003FB1200303078541046491C0028F5D18A
:1051400023462A463046BDE8F04100F04DBA000043
:10515000000000002D0000002B00000020000000D7
:105160002DE9F05F894604464FF0000ADFF828B1C8
:10517000FB44C0F820A02046E168884700287CD086
:10518000252806D0D4E901219047206A401C2062DE
:10519000F1E700255F462046E1688847202806465B
:1051A00008DB312E06D207EB060010F8200C08B100
:1051B0000543F0E7A80701D525F00405C4F81CA0B5
:1051C0000027C4F818A02A2E09D0304600F041FD6F
:1051D00038B304EB8708303EC8F8186019E059F876
:1051E000041B204604EB87029161E1688847012F88
:1051F000064618D1E069002820DA25F020051DE0D8
:10520000D8F8180000EB800006EB40003038C8F8F2
:1052100018002046E1688847064600F01AFD00287D
:10522000EED1012F0AD02E2E08D12046E168884702
:105230007F1C0646022F45F02005C4DBA06900282C
:1052400003DA404245F00105A061E80701D025F0EE
:10525000100596B1A6F14100192802D8203645F470
:1052600000654A463146204625604D46FAF7BAFFAA
:1052700060B1012807D0ED1D00E009E025F007002E
:1052800000F1080977E705F1040974E7304679E78A
:10529000206ABDE8F09F0000061800000FB400B5BA
:1052A0008DB010A9099000910B904FF0FF300A903B
:1052B00000200C90064878440690064878446A46D8
:1052C00007900F9909A800F01DFA0DB05DF814FBC6
:1052D0006B040000830400002DE9FF5F1D464FF0C2
:1052E000FF3B91464FF000085F46D5E90146A969AA
:1052F00001987F1C8847296A824688470028F6D192
:105300001AF101000CD0002E24F4C06419DD6006EF
:1053100014D5BAF12B0F09D0BAF12D0F0ED103E03D
:10532000584604B0BDE8F09F44F48064A969019830
:105330007F1C8847761E8246002E02DDBAF1300FB0
:1053400003D0B9F1000F26D032E0A969761E01988A
:105350007F1C44F400748847002E824605DDBAF1B4
:10536000780F06D0BAF1580F03D0B9F1000F10D062
:105370001EE0B9F1000F02D0B9F1100F18D1A969E0
:10538000761E01987F1C24F4007488478246102002
:1053900002E0082000E00A20814609E0A96908FB34
:1053A0000908761E01987F1C44F4007488478246E1
:1053B000002E05DD4946504600F08FF90028EDDA51
:1053C000E96901988847A00502D46FF00100A8E7B9
:1053D000E00727D1600614D5600502D5C8F10000AA
:1053E00000E04046296801F104022A6009682205AC
:1053F00001D5087016E0220701D5088012E0086088
:1054000010E0286800F1040129600068210502D538
:1054100080F8008006E0210702D5A0F8008001E0B6
:10542000C0F8008038467CE740EA0103024630B508
:105430009B0710D14FF0013400E008C208C91D1BC2
:105440009D4315EAC41FF8D013F0FF0102F8011BB9
:105450000DD01B0AF8E711F8013B002B02F8013BC5
:1054600005D011F8013B002B02F8013BF3D130BD10
:1054700010B5431C02E010F8011B71B18107FAD18D
:105480004FF0013202C88C1A8C4314EAC211F9D0D1
:10549000C01A0A0603D0C01E10BDC01A10BD0A04EF
:1054A00001D0801E10BD0902FCD0401E10BD421E5E
:1054B00012F8013F002BFBD111F8013B002B02F841
:1054C000013BF9D17047032A40F2308010F0030C01
:1054D00000F0158011F8013BBCF1020F624498BF47
:1054E00011F801CB00F8013B38BF11F8013BA2F1E4
:1054F000040298BF00F801CB38BF00F8013B11F05F
:10550000030300F02F81083AC0F0088051F8043BF3
:10551000083A51F804CBA0E80810F5E7121D5CBF6B
:1055200051F8043B40F8043BAFF30080D20724BF9E
:1055300011F8013B11F801CB48BF11F8012B24BF32
:1055400000F8013B00F801CB48BF00F8012B704781
:105550004FF000020429C0F0128010F0030C00F09C
:105560001B80CCF1040CBCF1020F18BF00F8012B1A
:10557000A8BF20F8022BA1EB0C0100F00DB85FEAE8
:10558000C17C24BF00F8012B00F8012B48BF00F8B4
:10559000012B70474FF0000200B513469446964623
:1055A000203922BFA0E80C50A0E80C50B1F1200136
:1055B000BFF4F7AF090728BFA0E80C5048BF0CC0E4
:1055C0005DF804EB890028BF40F8042B08BF704742
:1055D00048BF20F8022B11F0804F18BF00F8012BB4
:1055E00070477047704770472DE9F0470D46994660
:1055F0009246044600F124080168880604D5E06953
:1056000021F01001216000E00120A84202DDA0EBA2
:10561000050700E00027A16907EB050202EB09007E
:10562000A1EB0000A0612078C00602D42046FFF75D
:1056300031FD002608E0D4E901211AF80600904760
:10564000206A401C761C20624E45F4DB2078C006A0
:105650000AD52046FFF71EFD06E0D4E901213020DF
:105660009047206A401C2062381EA7F10107F4DC35
:1056700007E0D4E9012118F805009047206A401C92
:105680002062281EA5F10105F3DC2046FFF719FD75
:105690002078000602D50220BDE8F0870120FBE754
:1056A00001694A1C02610878704700B58FB0CDE9E6
:1056B00001310021059105497944CDE903101146D6
:1056C0006846FFF74DFD0FB000BD0000E5FFFFFF8E
:1056D0000A6802F8010B0A6070473A2800D2303895
:1056E00020F02002412A01D3A2F13700884201D3E1
:1056F0004FF0FF30704700000268114413780160DA
:1057000018467047D160054979445161044979448C
:10571000116200211161114600F060B8EDFFFFFF3A
:10572000B7000000426842B1016811F8013B23B1A3
:10573000521EC0E90012184670470121C160881E40
:10574000704742685AB1C368016843B983688B42A5
:1057500005D0491E521CC0E90012002070474FF0CE
:10576000FF30704710B5203AC0F00B80B1E81850F8
:10577000203AA0E81850B1E81850A0E81850BFF43B
:10578000F5AF5FEA027C24BFB1E81850A0E81850DA
:1057900044BF18C918C0BDE810405FEA827C24BF2E
:1057A00051F8043B40F8043B08BF7047D20728BFBC
:1057B00031F8023B48BF11F8012B28BF20F8023B0B
:1057C00048BF00F8012B704710B5044600F0E4F91B
:1057D0000068005D00F0010010BD00002DE9F34FEE
:1057E0004FF0000A0C4656468DB001200C9001F196
:1057F0000C000B9062690B980121904705002DD099
:10580000252D2CD0216A8847C0B162690B980121EF
:105810009047216A88470028F7D16269411E0B989A
:10582000904700E0761CA1690D988847216A884757
:105830000028F7D1E1690D988847DBE7A1690D9849
:105840008847A842074601D1761CD3E7E1690D9845
:1058500088477F1C02D1BAF1000F6FD06AE16269FC
:105860000B9800273D46394690472A2804D16269A3
:105870000B98012190470125DFF8CC8262690B98D3
:1058800001219047A0F130010A290AD24745E5DC01
:1058900007EB870100EB4107303FDFD445F01005EF
:1058A000ECE7E90601D46FF000476C280AD04C28D9
:1058B00014D0682815D06A280DD074281CD07A28F6
:1058C0001AD01DE062690B98012190476C2802D024
:1058D00045F0040514E045F002050DE045F0200513
:1058E0000AE062690B9801219047682802D045F0D0
:1058F000080505E045F4006562690B9801219047B1
:10590000C4E9015765283DD019DC582879D00CDC52
:10591000452837D004DC252826D041289ED131E007
:1059200046282FD0472899D12CE05B287FD06128CA
:1059300028D063287BD0642890D159E0F5E06F2807
:1059400047D008DC66281DD067281BD0692821D0E5
:105950006E2816D127E0702844D0732867D07528A8
:1059600046D078280DD14CE0A1690D9888472528AC
:1059700005463FF469AFE1690D9888476D1C3FF417
:105980006AAFD7E00D9923466A466FF00100AFF386
:105990000080C4E045F0400023464FF00002606004
:1059A000A80735D43DE0206800F1040121600068BB
:1059B000290501D506701DE7290701D5068019E7DD
:1059C000A90704D54FEAE671C0E9006112E7066055
:1059D00010E745F0400023464FF008026060A8073A
:1059E00016D41EE040F60E0125EA0100606016E0C4
:1059F00045F0400023464FF00A026060A80707D434
:105A00000FE045F040006060A80708D5234610224B
:105A10000D996FF00100AFF3008080E007E01022E5
:105A200023460D996FF00100FFF756FC77E04FF029
:105A3000000963284F46C8464B46CB4602D05B2838
:105A400006D038E0E80601D40120A060012732E04A
:105A50006269D4F80CB00B98012190475E2807D1F9
:105A60004FF0010949466269D4F80CB00B98904791
:105A7000216939B900210B4603AA42F82130491C9B
:105A80000829FADBD8B3216949B308F10108626932
:105A90000B98012190475D28F4D1B9F1000F09D08E
:105AA000002003A951F82020D24341F82020401CB7
:105AB0000828F7DB03AB2069002820794FEA407003
:105AC0001ED05B462246CDF80080CDE901970D99A6
:105AD00000286FF0010020DAAFF300801FE0C1174B
