:020000040800F2
:1000000098220020A52700083702000839020008BE
:100010003D020008410200084502000800000000FF
:10002000000000000000000000000000490200087D
:100030004B020008000000004D0200088D4500083A
:10004000BF270008BF270008BF270008BF270008F8
:10005000BF270008BF270008BF270008BF270008E8
:10006000BF270008BF270008BF270008BF270008D8
:10007000BF270008BF270008BF270008BF270008C8
:10008000BF270008BF270008BF270008BF270008B8
:10009000BF270008BF270008BF270008BF270008A8
:1000A000BF2700085D4A0008BF270008B94A0008BA
:1000B000C348000857490008BF270008BF270008A9
:1000C000BF270008BF270008BF270008BF27000878
:1000D000BF2700082D5100088152000887530008EF
:1000E000BF270008BF270008BF270008BF27000858
:1000F000BF270008BF270008BF270008BF27000848
:10010000BF270008BF270008BF270008BF27000837
:10011000BF270008BF270008BF270008BF27000827
:10012000BF270008BF270008BF270008BF27000817
:1001300000F002F800F070F80AA090E8000C824489
:100140008344AAF10107DA4501D100F065F8AFF266
:10015000090EBAE80F0013F0010F18BFFB1A43F0A5
:1001600001031847BCB40000DCB400000A444FF09F
:10017000000C10F8013B13F0070408BF10F8014B06
:100180001D1108BF10F8015B641E05D010F8016B4B
:10019000641E01F8016BF9D113F0080F1EBF10F8AF
:1001A000014BAD1C0C1B09D16D1E58BF01F801CBD2
:1001B000FAD505E014F8016B01F8016B6D1EF9D555
:1001C0009142D6D37047000000230024002500266A
:1001D000103A28BF78C1FBD8520728BF30C148BFAA
:1001E0000B60704766290AF0A286642907F0008236
:1001F000002070471FB507F07BFF0400002000219E
:1002000009F0E2FC401C60600020002109F0C6FCFF
:10021000E0601FBD10B510BD08F02EFA1146FFF7C3
:10022000E9FF03F0AEFC08F055FA03B4FFF7F2FF64
:1002300003BC08F095FA704700BFFEE700BFFEE779
:1002400000BFFEE700BFFEE7704770477047000041
:1002500000210020674A126842F48032654B1A6020
:1002600000BF644A126802F40030491C10B9B1F5AD
:10027000A06FF6D15F4A126812F4003F01D001204E
:1002800000E00020012842D15B4A126842F01002CF
:10029000594B1A601A46126822F003021A601A4675
:1002A000126842F002021A60524A5268514B5A6078
:1002B0001A4652685A601A46526842F480625A607E
:1002C0001A46526822F47C125A601A46526842F466
:1002D000E8125A601A46126842F080721A6000BF33
:1002E000444A126812F0007FFAD0424A526822F063
:1002F0000302404B5A601A46526842F002025A60AA
:1003000000BF3C4A526802F00C02082AF9D170473B
:1003100010B5FFF79DFF10BD10B53648006840F0DE
:1003200001003449086008464068344908403149B2
:10033000486008460068324908402E49086008466F
:10034000006820F4802008600846406820F4FE0021
:1003500048604FF41F008860FFF7DAFF4FF000603D
:100360002849086010BD10B5002100200022214B53
:100370005B6803F00C0121B1042906D0082928D1BB
:1003800007E0214B214C236027E01F4B1F4C2360CB
:1003900023E0184B5B6803F47010164B5B6803F4A2
:1003A0008032022303EB904022B9194B4343174C90
:1003B00023600DE00F4B5B6813F4003F04D0144B37
:1003C0004343124C236003E00F4B43430F4C236025
:1003D00003E00D4B0D4C236000BF00BF054B5B6875
:1003E000C3F303130B4CE15C084B1B68CB40074C79
:1003F000236010BD00100240002002400000FFF802
:10040000FFFFF6FE08ED00E000127A000000002079
:1004100000093D000400002010B50446CA4884428B
:1004200008D10121042000F023FB0021042000F06A
:100430001FFB46E0C548844208D10121082000F096
:1004400017FB0021082000F013FB3AE0C04884426B
:1004500008D10121102000F00BFB0021102000F03A
:1004600007FB2EE0BB48844208D10121202000F088
:10047000FFFA0021202000F0FBFA22E0B648844277
:1004800008D10121402000F0F3FA0021402000F0C3
:10049000EFFA16E0B148844208D10121802000F033
:1004A000E7FA0021802000F0E3FA0AE0AC48844239
:1004B00007D10121801500F0DBFA0021A01500F022
:1004C000D7FA10BD10B50121084600F0D1FA00217D
:1004D000012000F0CDFA10BD2DE9F04102460025C3
:1004E0000026002000230024002791F803C00CF010
:1004F0000F0591F803C01CF0100F03D091F802C053
:100500004CEA050591F800C0BCF1000F31D0146829
:1005100000202BE04FF0010C0CFA00F3B1F800C002
:100520000CEA03069E4220D183004FF00F0C0CFA18
:1005300003F7BC4305FA03FC4CEA040491F803C03A
:10054000BCF1280F06D14FF0010C0CFA00FCC2F8E8
:1005500014C00AE091F803C0BCF1480F05D14FF078
:10056000010C0CFA00FCC2F810C0401C0828D1D3C2
:100570001460B1F800C0BCF1FF0F34DD54680020F6
:100580002EE000F1080C4FF0010808FA0CF3B1F866
:1005900000C00CEA03069E4221D183004FF00F0CED
:1005A0000CFA03F7BC4305FA03FC4CEA040491F887
:1005B00003C0BCF1280F05D100F1080C08FA0CF8B3
:1005C000C2F8148091F803C0BCF1480F07D100F1C4
:1005D000080C4FF0010808FA0CF8C2F81080401C13
:1005E0000828CED35460BDE8F0814FF6FF7101803A
:1005F000022181700421C170704702460020936877
:100600000B4201D0012000E00020704701468868BD
:1006100080B2704702460020D3680B4201D001200F
:1006200000E0002070470146C86880B27047016151
:100630007047416170470AB1016100E04161704754
:10064000C16070474FF480320A43826181618261E8
:1006500082698269704702460020424B18684FF653
:100660008073184040EA021008433E4B1860704700
:100670003D49C8617047F0B50A46002300240021B7
:10068000002500F00046B6F1004F02D1354EF16969
:1006900001E0344E7168C0F3034583B200F44016A4
:1006A000B6F5401F08D121F070612E4E766826F015
:1006B00070662C4F7E6012E000F48016B6F5801F45
:1006C00006D1032606FA05F4A14341F0706106E065
:1006D000460D360103FA06F6B14341F0706122B1CE
:1006E000460D360103FA06F6314300F00046B6F136
:1006F000004F02D11B4EF16101E01A4E7160F0BD56
:1007000030B500228B071C0F0F2303FA04F2154BA0
:1007100008338C1053F824309343124C08348D1056
:1007200044F8253023468C1053F824308C07240FCE
:1007300000FA04F423430B4C08348D1044F82530A0
:1007400030BD0A490860704700080140000C0140B4
:10075000001001400014014000180140001C01403D
:10076000002001400000014000002042DC00204247
:10077000DB48006840F00100D9490860084640683D
:10078000D8490840D649486008460068D64908401C
:10079000D34908600846006820F4802008600846B5
:1007A000406820F4FE0048604FF41F0088607047E6
:1007B000CB49096821F48031C94A116011460968A2
:1007C00021F480211160B0F5803F03D0B0F5802F77
:1007D0000ED106E0C249096841F48031C04A116077
:1007E00007E0BF49096841F4A021BD4A116000E05B
:1007F00000BF00BF704710B5014600220023002053
:100800004A11012A02D1B64C236806E0022A02D11D
:10081000B34C236A01E0B24C636A01F01F02012469
:1008200094401C4201D0012000E0002010BD70B5B2
:1008300000240025002600BF3120FFF7DCFF06461C
:10084000641CB4F5A06F01D0002EF5D03120FFF765
:10085000D2FF08B1012500E00025284670BD014601
:1008600000209F4A106820F0F80040EAC1001060A4
:1008700070479E490860704702460020984B5868B0
:1008800020F47C1042EA01031843954B58607047EE
:1008900096490866704701460020914A506820F04A
:1008A00003000843506070478D48406800F00C001A
:1008B0007047014600208A4A506820F0F000084343
:1008C0005060704701460020854A506820F4E0607F
:1008D00008435060704701460020814A506820F468
:1008E000605040EAC1005060704729B17C4A527A9A
:1008F00002437B4B5A7204E0794A527A8243784B26
:100900005A7270477A490860704701460020744A5D
:10091000506820F440400843506070470021754AF9
:1009200011706F4A82F82010012802D0042808D1E3
:1009300003E001216F4A117004E005216D4A117036
:1009400000E000BF00BF70476B4908607047644912
:10095000096A0143624A1162704767494439086075
:10096000704730B500210022002400235C4D6D68E3
:1009700005F00C0121B1042905D0082923D105E097
:100980005E4D056022E05D4D05601FE0544D6D68D1
:1009900005F47012524D6D6805F48034022505EBA4
:1009A00092421CB9564D554305600BE04C4D6D68A5
:1009B00015F4003F03D0524D5543056002E04F4D02
:1009C0005543056002E04D4D056000BF00BF444D3A
:1009D0006D6805F0F00109094A4D6B5C0568DD4062
:1009E00045603F4D6D6805F4E061090A454D6B5C5B
:1009F0004568DD4085603A4D6D6805F46051C90A6F
:100A0000404D6B5C4568DD40C560354D6D6805F453
:100A10004041890B3C4D6B5CC568B5FBF3F5056146
:100A200030BD29B12E4A526902432D4B5A6104E070
:100A30002B4A526982432A4B5A61704729B1284A8E
:100A400092690243264B9A6104E0254A92698243E7
:100A5000234B9A61704729B1214AD2690243204B46
:100A6000DA6104E01E4AD26982431D4BDA617047A5
:100A700029B11B4AD2680243194BDA6004E0184AD4
:100A8000D2688243164BDA60704729B1144A126962
:100A90000243134B1A6104E0114A12698243104B5E
:100AA0001A61704714494039086070470F49C8649B
:100AB00070470B49C87170470948406A40F0807020
:100AC00007494862704701460020054A92680A4279
:100AD00001D0012000E00020704701498872704772
:100AE000001002400000FFF8FFFFF6FE0000424247
:100AF000D8004242201002408004424200127A0094
:100B000000093D0014000020240000203149014369
:100B1000314A1160704770B5002100230F22C4785C
:100B20000CB32D4C246804F4E064C4F5E064210A9D
:100B3000C1F10403CA40447804FA03F184781440F4
:100B400021430901254C0678A155047804F01F05BE
:100B50000124AC4005786D114FF0E02606EB8505C9
:100B6000C5F8004109E0047804F01F050124AC40F9
:100B70001B4D0678761145F8264070BD194A0A408B
:100B80000243154B1B1F1A60704739B1124A121DE0
:100B900012680243104B1B1D1A6006E00E4A121D1C
:100BA000126882430C4B1B1D1A607047042808D141
:100BB0004FF0E021096941F004014FF0E02211619A
:100BC00007E04FF0E021096921F004014FF0E02235
:100BD000116170470000FA050CED00E000E400E050
:100BE00080E100E080FFFF1F10B50446FB4884420F
:100BF00009D101218803FFF73BFF00214FF480401A
:100C0000FFF736FF32E0F648844209D1012148045B
:100C1000FFF73BFF00214FF40030FFF736FF25E0E0
:100C2000F048844209D101218804FFF72EFF0021FA
:100C30004FF48020FFF729FF18E0EB48844209D1E8
:100C40000121C804FFF721FF00214FF40020FFF726
:100C50001CFF0BE0E548844208D101210805FFF79D
:100C600014FF00214FF48010FFF70FFF10BD2DE996
:100C7000F04786B005460E460024A24600BFA146B6
:100C80000027B08900B100BF2F462C8A4CF6FF70B8
:100C90000440F08804432C82AC894EF6F3100440E3
:100CA000B08831890843718908430443AC81AC8A18
:100CB0004FF6FF400440B0890443AC8201A8FFF71F
:100CC00050FEC648874202D1DDF810A001E0DDF8F1
:100CD0000CA0A88910F4004F08D00AEBCA0000EB62
:100CE0000A1031684900B0FBF1F807E00AEBCA00CE
:100CF00000EB0A1031688900B0FBF1F86420B8FB02
:100D0000F0F004012009642101FB1089A88910F486
:100D1000004F08D0322000EBC900B0FBF1F000F02A
:100D20000700044308E0322000EB09106421B0FB07
:100D3000F1F000F00F0004432C8106B0BDE8F0870D
:100D40004FF41651016000218180C18001810C2186
:100D5000418100218181704710B502460020108A30
:100D60004FF2FF0318400B884C8823438C882343A1
:100D7000CC8823431843108210BD0021018041809C
:100D80008180C180704721B1828942F40052828102
:100D900004E082894DF6FF731A4082817047F0B5F6
:100DA00003460024002600250020A1F510676A3FB5
:100DB00000D100BF1846C1F3421401F01F060127FD
:100DC00007FA06F5012C01D10C3004E0022C01D108
:100DD000103000E014301AB107682F43076002E0BA
:100DE0000768AF430760F0BD1AB1838A0B43838263
:100DF00002E0838A8B4383827047028A4FF6F07346
:100E00001A400282028A0A430282704782894FF2A4
:100E1000FF731A40828182890A438281704721B11F
:100E2000828942F00202828104E082894FF6FD73DA
:100E30001A4082817047028A4FF6DF731A4002829D
:100E4000028A0A430282704721B1028A42F4804238
:100E5000028204E0028A4BF6FF731A400282704756
:100E6000C1F308028280704701468888C0F30800F9
:100E70007047818941F0010181817047028BD2B2B4
:100E80000283028B42EA012202837047028B02F442
:100E90007F420283028B0A430283704721B1828A18
:100EA00042F02002828204E0828A4FF6DF731A4009
:100EB0008282704721B1828A42F01002828204E06D
:100EC000828A4FF6EF731A408282704721B1828A7C
:100ED00042F00802828204E0828A4FF6F7731A40D9
:100EE0008282704721B1828942F40042828103E00C
:100EF0008289C2F30E028281704721B1828A42F454
:100F00000062828204E0828A4FF2FF731A4082827A
:100F10007047828A4FF6FB731A408282828A0A43A4
:100F20008282704721B1828A42F00202828204E00A
:100F3000828A4FF6FD731A40828270470246002073
:100F4000B1F5007F00D100BF13880B4201D0012012
:100F500000E00020704701F40072B2F5007F00D17C
:100F600000BFCA430280704770B5024600240023C8
:100F700000250020A1F510666A3E00D100BFC1F334
:100F8000421501F01F03012606FA03F3012D02D1D9
:100F90009689334006E0022D02D1168A334001E0E3
:100FA000968A33400C12012606FA04F4168834405F
:100FB00013B10CB1012000E0002070BD10B500227B
:100FC0000023A1F510646A3C00D100BF0A1201247D
:100FD0009440A3B2DC43048010BD000000380140FF
:100FE0000044004000480040004C004000500040D9
:100FF00010B50446FE48844208D10121C014FFF711
:1010000037FD0021E014FFF733FDC4E0B4F1804F59
:1010100008D101210846FFF738FD00210120FFF724
:1010200034FDB8E0F348844208D101210220FFF7E3
:101030002CFD00210220FFF728FDACE0EE488442A1
:1010400008D101210420FFF720FD00210420FFF733
:101050001CFDA0E0E948844208D101210820FFF7E7
:1010600014FD00210820FFF710FD94E0E4488442BD
:1010700008D101211020FFF708FD00211020FFF703
:1010800004FD88E0DF48844208D101212020FFF7D9
:10109000FCFC00212020FFF7F8FC7CE0DA488442C9
:1010A00008D101214014FFF7E3FC00216014FFF791
:1010B000DFFC70E0D548844209D10121C804FFF764
:1010C000D7FC00214FF40020FFF7D2FC63E0D048AA
:1010D000844209D101210805FFF7CAFC00214FF421
:1010E0008010FFF7C5FC56E0CA48844209D10121AF
:1010F0004805FFF7BDFC00214FF40010FFF7B8FCD6
:1011000049E0C548844208D101214020FFF7BDFCD9
:1011100000214020FFF7B9FC3DE0C048844208D1DF
:1011200001218020FFF7B1FC00218020FFF7ADFCFA
:1011300031E0BB48844208D101218015FFF7A5FCAE
:101140000021A015FFF7A1FC25E0B648844209D193
:1011500001210804FFF78CFC00214FF48030FFF7D9
:1011600087FC18E0B048844209D101214804FFF708
:101170007FFC00214FF40030FFF77AFC0BE0AB4816
:10118000844208D101218804FFF772FC00214FF44A
:101190008020FFF76DFC10BD00220288944B98421E
:1011A0000ED0994B98420BD0B0F1804F08D0914BA4
:1011B000984205D0904B984202D0904B984204D16F
:1011C0004FF68F731A404B881A438D4B984207D0C5
:1011D0008C4B984204D04FF6FF431A40CB881A43F9
:1011E00002808B8883850B880385814B98420BD0C6
:1011F000854B984208D08B4B984205D08A4B984239
:1012000002D08A4B984201D10B7A03860123838254
:10121000704770B5002400220023058C4FF6FE763F
:1012200035400584028C8388048B4FF68F752C40E3
:10123000B51E2C400D882C43751E2A400D892A436B
:101240004D882A436A4DA8420BD06F4DA84208D062
:10125000744DA84205D0744DA84202D0734DA842E7
:1012600013D14FF6F7752A404D892A434FF6FB7587
:101270002A408D882A434FF6FF652B404FF6FF55D5
:101280002B408D892B43CD892B4383800483CD88CC
:101290008586028470BD70B5002400220023058C71
:1012A0004FF6EF7635400584028C8388048B48F630
:1012B000FF752C404FF6FF452C400D884FF6FF760A
:1012C00006EA05252C434FF6DF752A400D8906EA0C
:1012D00005152A434D8806EA05152A43444DA842C0
:1012E00002D0494DA8421DD14FF67F752A404D8945
:1012F0004FF6FF7606EA05152A434FF6BF752A40DA
:101300008D8806EA05152A434FF6FF352B404FF22C
:10131000FF752B408D8906EA85052B43CD8906EAAA
:1013200085052B4383800483CD880587028470BDA7
:1013300070B5002400220023058C4FF6FF6635406F
:101340000584028C8388848B4FF68F752C404FF672
:10135000FC752C400D882C434FF6FF552A400D8913
:101360004FF6FF7606EA05252A434D8806EA05254D
:101370002A431F4DA84202D0234DA8421DD14FF24F
:10138000FF752A404D894FF6FF7606EA05252A4368
:101390004FF6FF352A408D8806EA05252A434EF68A
:1013A000FF752B404DF6FF752B408D8906EA05151C
:1013B0002B43CD8906EA05152B4383808483CD8892
:1013C0008587028470BD70B5002200230024058C3F
:1013D0004EF6FF7635400584038C8488828B48F670
:1013E000FF752A404FF6FF452A400D8820E0000097
:1013F000002C01400004004000080040000C0040A8
:10140000001000400014004000340140004C014036
:10141000005001400054014000180040001C0040F2
:1014200000200040004001400044014000480140CD
:101430004FF6FF7606EA05252A434DF6FF752B4049
:101440000D8906EA05352B434D8806EA05352B4301
:10145000FA4DA84202D0FA4DA84208D14BF6FF75CA
:101460002C408D894FF6FF7606EA85152C43848043
:101470008283CD88A0F84050038470BD828B4FF2E8
:10148000FF331A408283828B4FF6FF7303EA0123F6
:101490001A4382837047F0B50C461546002200219E
:1014A0000026078C4EF6FF7C07EA0C070784828B28
:1014B000018C4FF6FF7707EA043640F6FF473A40C3
:1014C0004FF6FF7707EA05273A434FF6FF7707EA1B
:1014D00003373A43D94FB8420ED0D94FB8420BD058
:1014E000B0F1804F08D0D74FB84205D0D64FB842A0
:1014F00002D0D64FB84206D14DF6FF77394046F4B8
:101500008057394305E047F6FF57394044F4805788
:10151000394382830184F0BD828B4FF6F3731A4006
:101520008283828B0A4382837047F0B50C4615464E
:10153000002200210026078C4FF6FF6C07EA0C07FB
:101540000784828B018C4FF6FF7707EA04264FF65B
:101550000C773A404FF6FF7707EA03172F433A43D9
:10156000B64FB8420ED0B64FB8420BD0B0F1804F54
:1015700008D0B44FB84205D0B34FB84202D0B34FF1
:10158000B84206D14FF6FF57394046F480773943C9
:1015900005E04FF2FF57394044F4807739438283A6
:1015A0000184F0BD028B4FF2FF331A400283028B9D
:1015B0004FF6FF7303EA01231A4302837047F0B525
:1015C0000C461546002200210026078C4FF6EF7CC2
:1015D00007EA0C070784028B018C4FF6FF7707EAB6
:1015E000041640F6FF473A404FF6FF7707EA033705
:1015F0003A434FF6FF7707EA05273A438F4FB84241
:101600000ED08F4FB8420BD0B0F1804F08D08D4F25
:10161000B84205D08C4FB84202D08C4FB84206D1A8
:101620004FF6DF77394046F01007394305E04FF6B3
:101630005F77394044F01007394302830184F0BDDD
:10164000028B4FF6F3731A400283028B0A43028324
:101650007047F0B50C46154600220021068C4FF667
:10166000FE773E400684028B018C4FF60C763240AA
:101670007E1C06EA03162E433243704EB0420ED053
:101680006F4EB0420BD0B0F1804F08D06D4EB042DB
:1016900005D06D4EB04202D06C4EB04206D14FF62E
:1016A000FD76314044F00106314305E04FF6F57612
:1016B000314044F00106314302830184F0BD70B52E
:1016C00005460C465D4885420ED05D4885420BD0EC
:1016D000B5F1804F08D05B48854205D05A48854215
:1016E00002D05A48854200D100E000BF208850B99E
:1016F0002389A28861882846FFF7ABFFE188284646
:10170000FFF79EFF25E0208804280AD12389A288BC
:1017100061882846FFF753FFE1882846FFF742FF1C
:1017200017E0208808280AD12389A28861882846E2
:10173000FFF7FBFEE1882846FFF7EEFE09E023896C
:10174000A28861882846FFF7A6FEE1882846FFF7B1
:1017500095FE70BD2DE9F04105460C460026012797
:10176000608808B9022600E00026A088012801D17F
:10177000022700E001272088A0B92389A288618878
:101780002846FFF766FFE1882846FFF759FF2389BF
:101790003A4631462846FFF712FFE1882846FFF710
:1017A00001FF13E02389A28861882846FFF707FF1D
:1017B000E1882846FFF7F6FE23893A463146284657
:1017C000FFF747FFE1882846FFF73AFFBDE8F081C1
:1017D0000A884B881A438B881A43CB881A430B8993
:1017E0001A434B891A438B891A43A0F84420704747
:1017F0004FF6FF71818000210180C180418001721C
:1018000070470021018041808180C1800181418138
:101810008181C18170470021018041800121818047
:101820000021C180018170470021018041808180B9
:10183000C18001814181818170470000002C0140FD
:10184000003401400004004000080040000C00404B
:1018500021B1028842F00102028004E002884FF6C2
:10186000FE731A400280704731B1B0F8442042F450
:101870000042A0F8442005E0B0F84420C2F30E0274
:10188000A0F8442070471AB183890B43838102E09A
:1018900083898B43838170478182704741EA0203C9
:1018A000A0F8483070471AB183890B43838102E066
:1018B00083898B438381704701894FF6F872114009
:1018C000018170470A46002101894FF68F73194044
:1018D00011430181704730B504460D462946204624
:1018E000FFF7F0FF208940F00700208130BD2DE98F
:1018F000F04104460D4616461F46602D06D13B4674
:10190000012231462046FFF75AFE05E03B46012200
:1019100031462046FFF79DFE29462046FFF7D2FFBD
:10192000208940F007002081BDE8F08130B50C46E9
:1019300000210189C9B24FF6FF7505EA0325154359
:1019400025432943018130BD2DE9F04105460E466E
:1019500017469846002443463A4631462846FFF744
:10196000E5FF2C894FF6F870044044F007044FF669
:101970008F70044044F070042C81BDE8F081F0B514
:1019800004460D4616461F463B463246294620462B
:10199000FFF7CCFF208940F480402081F0BD018515
:1019A000828270470A46002101884FF68F731940E2
:1019B000114301807047F0B50C4615461E460021C4
:1019C000002200230189028B038C4FF6F8773940FF
:1019D00021434FF6FC473A4040F201173A434FF695
:1019E000DD773B404FF6FF7707EA06172F433B436F
:1019F000018102830384F0BD0A460021018B4FF66A
:101A00008F7319401143018370470A460021018BEF
:101A100048F6FF7319404FF6FF7303EA0223194398
:101A2000018370470A460021818B4FF68F7319405E
:101A30001143818370470A460021818B48F6FF736A
:101A400019404FF6FF7303EA02231943818370475D
:101A500021B1028842F08002028004E002884FF641
:101A60007F731A400280704721B1828842F00402DD
:101A7000828004E082884FF6FB731A4082807047B0
:101A800021B1828842F00802828004E082884FF609
:101A9000F7731A408280704721B1828842F00102B8
:101AA000828004E082884FF6FE731A40828070477D
:101AB0000A460021018B4FF6F77319401143018349
:101AC00070470A460021018B4FF2FF7319404FF611
:101AD000FF7303EA02231943018370470A4600217A
:101AE000818B4FF6F77319401143818370470A4683
:101AF0000021818B4FF2FF7319404FF6FF7303EA09
:101B000002231943818370470A460021018B4FF657
:101B1000FB7319401143018370470A460021018B72
:101B20004FF6FF3319404FF6FF7303EA02231943C0
:101B3000018370470A460021818B4FF6FB731940E1
:101B40001143818370470A460021818B4FF6FF3392
:101B500019404FF6FF7303EA02231943818370474C
:101B60000A460021018B4FF67F7319401143018310
:101B700070470A460021018BC1F30E014FF6FF7337
:101B800003EA02231943018370470A460021818B2F
:101B90004FF67F7319401143818370470A46002135
:101BA000818BC1F30E014FF6FF7303EA0223194341
:101BB000818370470A460021018C4FF6FD7319405E
:101BC0001143018470470A460021018C4FF6F773D8
:101BD00019401143018470470A460021018C4FF6D9
:101BE000DF7319404FF6FF7303EA021319430184B0
:101BF00070470A460021018C4FF67F7319404FF65B
:101C0000FF7303EA02131943018470470A46002157
:101C1000018C4FF6FF5319404FF6FF7303EA02237E
:101C20001943018470470A460021018C4FF2FF736B
:101C300019404FF6FF7303EA0223194301847047EA
:101C40000A460021018C4DF6FF7319404FF6FF73D1
:101C500003EA023319430184704730B5002301249D
:101C60008C40A3B2048C9C430484048C02FA01F5DA
:101C7000ADB22C43048430BD30B5002304248C4025
:101C8000A3B2048C9C430484048C02FA01F5ADB227
:101C90002C43048430BD70B5034600200024184650
:101CA000183001258D40ACB21D8CA5431D8409B1AF
:101CB000082909D100EB6100056825F07005056071
:101CC0000568154305600EE00D1FC5F34E05284459
:101CD000056825F4E045056005684FF6FF7606EADD
:101CE00002263543056070BD21B1028842F0020230
:101CF000028004E002884FF6FD731A4002807047AC
:101D000021B1028842F00402028004E002884FF60A
:101D1000FB731A400280704721B1828842F0800232
:101D2000828004E082884FF67F731A408280704779
:101D300002884FF6F7731A40028002880A43028035
:101D4000704782884FF68F731A40828082880A43D8
:101D50008280704702894FF6F8731A400281028927
:101D60000A430281704702894FF67F731A4002814D
:101D700002890A43028170478184704781857047D8
:101D8000818670470187704781877047A0F84010AF
:101D9000704702884FF6FF431A40028002880A43C8
:101DA000028070470146888E70470146088F704751
:101DB0000146888F70470146B1F8400070470146E0
:101DC000888C70470146088D704702460020138AB0
:101DD0000B4201D0012000E000207047CA4302827C
:101DE000704730B50246002000230024158A05EA1A
:101DF0000103958905EA010413B10CB1012000E04B
:101E0000002030BDCA4302827047000010B504466E
:101E1000BE48844208D101218014FEF729FE00212A
:101E2000A014FEF725FE16E0B948844208D101212E
:101E30000014FEF72AFE00212014FEF726FE0AE019
:101E4000B448844207D10121C013FEF71EFE0021D1
:101E5000E013FEF71AFE10BD10B50022028802F44E
:101E600041520B884C8823438C882343CC882343DE
:101E70000C8923434C8923438C892343CC892343F6
:101E80001A430280838B4FF2FF74234083830B8AB3
:101E9000038210BD2DE9F04F85B005460C464FF08A
:101EA000000902274FF000084FF0010B0026B24650
:101EB000A88B4FF240010840A88302202884B5F87F
:101EC0001C90A068022801D100BF38E0A08810B99A
:101ED0004FF0010B01E04FF0020B8D48854200D11D
:101EE00000E000BF6846FEF73CFDDDF800A0E0889A
:101EF000B0F5007F0AD14FEA1A2000EB80004000C5
:101F0000A168B0FBF1F0401D86B20BE04FEA4B1028
:101F1000BAFBF0F000EB80004000A168B0FBF1F0EC
:101F2000401D86B20A20B6FBF0F606F00108A6EBCB
:101F30000800C0F34F074FF6FF7000EA0828022F91
:101F400001DBFF2F02DD02274FF00008E08840EAA6
:101F5000080038432884A088A18908436188084381
:101F60002188084340F4006040EA0909A5F81C9064
:101F700005B0BDE8F08F0021018041808180C180E3
:101F8000018141818181C181072101827047002146
:101F9000018041808180C180022181600021818196
:101FA000704721B1028842F04002028004E00288BA
:101FB0004FF6BF731A400280704721B1828B42F402
:101FC0008062828304E0828B4FF6FF331A40828363
:101FD000704730B5002400230C110125A540ABB299
:101FE0001AB185881D43858002E085889D438580E0
:101FF00030BD1AB183880B43838002E083888B4312
:102000008380704781817047014688897047A1F5B8
:102010007E42FF3A04D0028842F48072028004E0DB
:1020200002884FF6FF631A400280704721B1828810
:1020300042F00402828004E082884FF6FB731A406B
:102040008280704702884FF2FF731A400280028834
:102050000A4302807047018841F480510180704733
:1020600021B1028842F40052028004E002884DF659
:10207000FF731A400280704702460020012901D0F8
:10208000108B00E0908A70470146088A7047B1F5CE
:10209000804F04D1028842F48042028004E002882A
:1020A0004BF6FF731A4002807047024600201389E6
:1020B0000B4201D0012000E000207047CA4302819A
:1020C0007047F0B50246002000240023002501F0EF
:1020D0000F070126BE40B4B20B1101269E40B3B2D9
:1020E000968806EA03051689264202D00DB1012022
:1020F00000E00020F0BD10B5002201F00F04012324
:10210000A3409AB2D343038110BD000000300140C8
:1021100000380040003C004010B50446F9488442B5
:1021200008D101214015FEF7A3FC00216015FEF740
:102130009FFC17E0F448844208D101210015FEF706
:1021400097FC00212015FEF793FC0BE0EF4884423A
:1021500008D10121C803FEF78BFC00214FF4004099
:10216000FEF786FC10BD30B5024600200023506803
:10217000E74C20400D790C6844EA05242043506068
:102180009068E44C2040D1E902542C434D7944EA54
:10219000450420439060D06A20F470000C7C641EDB
:1021A000E4B2234340EA0350D06230BD0021016015
:1021B000017141718160C16001210174704721B1D9
:1021C000826842F00102826003E0826822F001022C
:1021D0008260704721B1826842F48072826003E0BD
:1021E000826822F480728260704710B50023CBB2FF
:1021F0001AB144681C43446002E044689C43446054
:1022000010BD816841F008018160704701460020DF
:102210008A6812F0080F01D0012000E0002070470A
:10222000816841F0040181607047014600208A689E
:1022300012F0040F01D0012000E00020704721B10E
:10224000826842F4A002826003E0826822F4A00265
:1022500082607047014600208A6812F4800F01D026
:10226000012000E00020704710B50A46002100233D
:10227000416821F46041531E41EA4331416010BD81
:1022800021B1426842F40062426003E0426822F4F5
:10229000006242607047F0B504460D460020002100
:1022A000092D11DDE068A5F10A0606EB46070726B1
:1022B00006FA07F18843A5F10A0606EB460603FA7B
:1022C00006F10843E0600CE0206905EB45070726AE
:1022D00006FA07F1884305EB450603FA06F10843C1
:1022E0002061072A0FDA606B561E06EB86071F2651
:1022F00006FA07F18843561E06EB860605FA06F134
:102300000843606322E00D2A0FDA206BD61F06EB2C
:1023100086071F2606FA07F18843D61F06EB8606B6
:1023200005FA06F10843206310E0E06AA2F10D0609
:1023300006EB86071F2606FA07F18843A2F10D0671
:1023400006EB860605FA06F10843E062F0BD21B10E
:10235000826842F48012826003E0826822F4801274
:10236000826070470146C86C80B2704765484C3047
:102370000068704721B1426842F48062426003E025
:10238000426822F480624260704721B1426842F4A0
:102390008052426003E0426822F4805242607047FB
:1023A0000A460021816821F4E041114381607047B1
:1023B00021B1826842F40042826003E0826822F424
:1023C00000428260704721B1826842F4021282604A
:1023D00003E0826822F40212826070470146002006
:1023E0008A6812F4001F01D0012000E0002070472D
:1023F000F0B504461546002000220026092911DD0B
:10240000E068A1F10A0707EB470C072707FA0CF26F
:102410009043A1F10A0707EB470703FA07F21043BD
:10242000E0600CE0206901EB410C072707FA0CF291
:10243000904301EB410703FA07F210432061A06BC0
:10244000C0F30156EF1C06F1010CA7EB0C0707EBDC
:10245000870C1F2707FA0CF29043EF1C06F1010CC2
:10246000A7EB0C0707EB870701FA07F21043A063FD
:10247000F0BD10B50A4600210023816B21F4401104
:10248000531E41EA0351816310BD10B5002303467A
:102490000B441A6010BD02460023134601F12800C8
:1024A0000344186880B270470A46002141681A4BFD
:1024B00019401143416070474162826270470A4689
:1024C0000021416821F01F0111434160704740B174
:1024D0000C490831096841F400010A4A08321160C8
:1024E00007E008490831096821F40001054A08326B
:1024F000116070470246002013680B420ED0012085
:102500000DE000000024014000280140003C014093
:10251000FFFEF0FFFDF7F1FFFFFD3FFF00207047DA
:10252000CA430260704770B50246002000230024B1
:102530000B125568CEB205EA060415681D4202D09A
:102540000CB1012000E0002070BD00220A12D3432C
:102550000360704701684FF6FE7211400160002170
:10256000016041608160C1608C49884208D18B491B
:102570000839496841F00F01884A083A51608AE0F9
:1025800086491431884208D184490839496841F0A4
:10259000F001824A083A51607DE080492831884242
:1025A00008D17E490839496841F470617B4A083A8C
:1025B000516070E079493C31884208D17749083947
:1025C000496841F47041754A083A516063E07349C3
:1025D0005031884208D171490839496841F4702165
:1025E0006E4A083A516056E06C496431884208D11D
:1025F0006A490839496841F47001684A083A5160EB
:1026000049E066497831884208D164490839496807
:1026100041F07061614A083A51603CE0604988428B
:1026200006D1011F096841F00F01021F116032E05D
:102630005B491431884208D15949091F096841F0A2
:10264000F001574A121F116025E055492831884290
:1026500008D15349091F096841F47061504A121F9B
:10266000116018E04E493C31884208D14C49091F9D
:10267000096841F470414A4A121F11600BE0484951
:102680005031884207D14649091F096841F4702139
:10269000434A121F1160704710B50022026847F6C6
:1026A000F0739A430C6A8B6823430C6923434C698B
:1026B00023438C692343CC6923434C6A23438C6AAC
:1026C00023431A430260CB6843600B6883604B6806
:1026D000C36010BD0021016041608160C160016183
:1026E00041618161C161016241628162704721B1D2
:1026F000026842F00102026004E002684FF6FE73D5
:102700001A40026070471AB103680B43036002E08D
:1027100003688B4303607047416070470146486817
:1027200080B2704701460020002211F0805F03D084
:102730001B4B083B1A6802E0184B083B1A680A4218
:1027400001D0012000E00020704710F0805F03D02E
:102750001349091F086002E01049083948607047B2
:1027600001460020002211F0805F03D00C4B083B93
:102770001A6802E0094B083B1A680A4201D001209E
:1027800000E00020704710F0805F03D00449091F6B
:10279000086002E0014908394860704708000240BB
:1027A000080402400948804709480047FEE7FEE761
:1027B000FEE7FEE7FEE7FEE7FEE7FEE7FEE7FEE7F1
:1027C00004480549054A064B7047000019030008F4
:1027D00031010008981C002098220020981E00203B
:1027E000981E002010B5012002F011FF40F2FF708A
:1027F00003F0CEF8C022FE49FE4803F0A6F8002000
:1028000002F005FF10BD10B5FB480078012808D084
:1028100001F0C6FEF9490968401AF9490968884279
:1028200008D90020F449087001F0BAFEF3490860A5
:10283000FFF7D8FF10BD2DE9F04F8DB005460026FB
:10284000284602F086FE287823286ED12879502861
:10285000FBD168795328F8D1A8794328F5D1E879D4
:102860004B28F2D1287B2128EFD1687830386421B9
:102870004843A978303901EB810100EB4101E87848
:102880003038084484B2687A303864214843A97AE1
:10289000303901EB810100EB4101E87A30380F1843
:1028A00017F5FA7F61DBB7F5FA7F5EDC082C5CDA9E
:1028B000287A2B2803D0287A2D2800D17F42384649
:1028C00007F03BFCCDE90801CA498C3151F82400DE
:1028D00007F033FCCDE90401CA4901EB0411886813
:1028E00007F0A2FFC84AC94BCDE9000107F0B4F9CF
:1028F000CDE90201DDE9042307F0ACFECDE90601D4
:10290000DDE9082307F0A8F9CDE90A0107F072F91B
:102910008246B8488C3040F82470BD49504608F0D3
:102920005FFA03D2DFF8E8A207E021E0B949504698
:1029300008F056F901D2DFF8DCA2504608F004F99D
:10294000B04901EB04114880AE4800EB0410C0F818
:1029500008A00020AB4901EB0411C86001F020FE83
:10296000A64908600120A44908700DB0BDE8F08FA9
:102970002878232846D12879502843D168794428DB
:1029800040D1A87953283DD1E87954283AD1287A02
:10299000212837D16878303864214843A978303904
:1029A00001EB810100EB4101E8783038084484B242
:1029B000082C0FDA0020934901EB0411C8609149FB
:1029C00001EB0411886808F0BFF88E4901EB04118F
:1029D000488016E0FF2C14D1002410E00020894923
:1029E00001EB0411C860874901EB0411886808F005
:1029F000ABF8844901EB04114880601C84B2082CB8
:102A0000ECDBB2E732E1A85D232813D10024701C6F
:102A100086B208E0A85D04EB840100EB4100303889
:102A200084B2701C86B2A85D0028EBD0A85D502847
:102A3000E8D0EFE7A85D50281ED14FF00009701CC8
:102A400086B212E0A85D08F0B7F873490B904846CB
:102A500008F0FAF80A900B9907F012FF83466F49C5
:102A600008F0F0F98146701C86B2A85D0028C9D034
:102A7000A85D5428C6D0E5E7A85D54287DD14FF065
:102A80000008701C86B209E0A85D08EB880100EB25
:102A9000410030381FFA80F8701C86B2A85D10B172
:102AA000A85D2128F0D1082C76DA5D49484608F067
:102AB00097F871D85749484608F092F96CD842F215
:102AC0001070804568DC4B498C3151F8240008F0C7
:102AD0005BF88346494607F0D3FE81464C49484699
:102AE00008F07EF901D2DFF828914A49484608F0FB
:102AF00077F801D2DFF81C91B8F1140F11DA4846CB
:102B000008F022F83F4901EB041148803D4800EBF2
:102B10000410C0F8089000203A4901EB0411C86085
:102B20003AE0484608F010F8364901EB04114880B5
:102B3000344800EB0410A0F80480324901EB041182
:102B4000888807F011FB0022364BCDE9040107F01D
:102B50003FF9CDE908012B4901EB0411488808F041
:102B60002BF80590274800EB04108168059808F0C1
:102B700069F9834607F058FE00E075E0CDE90601EB
:102B8000DDE9082307F024F9CDE90A0107F032F85E
:102B90001C4901EB0411C860FF2C67D1002460E0E0
:102BA00014498C3151F8241001F2DC5007F0ECFF8D
:102BB0008146484607F0C8FF124901EB04114880DE
:102BC000104800EB0410A0F804800E4901EB04113A
:102BD000888807F0C9FA0022124BCDE9040107F0FA
:102BE000F7F8CDE90801074901EB041148881BE01B
:102BF00000F87F00380B0020300000203400002057
:102C0000E8000020B8020020D655815A0C1EA63FCD
:102C100000101C450000FA43000020410000404223
:102C200000401C450000344007F0C6FF0590FE48F8
:102C300000EB04108168059808F004F9834607F05A
:102C4000F3FDCDE90601DDE9082307F0C1F8CDE980
:102C50000A0106F0CFFFF44901EB0411C860601CC3
:102C600084B2082C02DA9BE7701C86B2A85D0028AB
:102C70007FF4C9AE00BF78E670B50246002100209F
:102C8000002323E0545C542C1ED14C1C145D303CBA
:102C90004FF47A756C438D1C555D303D05EBC506D0
:102CA00006EB051504EB8505CC1C145D303C04EBEC
:102CB000840405EB44050C1D145D303C2B19834244
:102CC00000DD1846091D01E0491C00BF545C002CC2
:102CD000D8D170BD10B50446012002F098FC4FF425
:102CE0008061D24804F0ACFEE1017F22CF4802F0BF
:102CF000C7FDCE48FFF7C0FFCD490860CB48FFF7BE
:102D00009AFD2246CBA1D04804F034FCCE4802F014
:102D1000F8FB002002F07BFC10BD10B5CB4800781A
:102D2000002869D101F03CFC0021C94AD2E90032F7
:102D3000C31A61EB0200BE4909680022C91A824128
:102D40005DDA01F02DFC0021C14A03C2C1480068D0
:102D5000B0B1C148006898B90120BC49087064202E
:102D600001F071F9BDA002F0CCFBBCA002F000FCA8
:102D7000BC480068052802D10120BA49086010BD8E
:102D8000B9480068FFF7A6FFB8480068B849096865
:102D9000884218DAB4480068B549096888420CD1FD
:102DA000B2480068B0490860AA48006820B1AA4843
:102DB0000068401EA8490860E1E7AB480068401C75
:102DC000A94908601BE0A8480068A9490968884229
:102DD0000CD1A6480068A44908609E48006820B14C
:102DE0009D480068401E9C490860C8E79E480068EE
:102DF000401E9D49086002E00A208D49086000BF1E
:102E0000BDE704E003788B4200D10270401C0378D8
:102E1000002BF7D170470146002215E008784728BB
:102E200011D1491C07E0087802EB820300EB430054
:102E3000303882B2491C0878232802D00878242828
:102E4000F1D110467047491C08780028E6D1401E91
:102E5000F8E7F8B504460025012002F0D8FB6078B9
:102E600024280CD1A078212809D10021814880F89C
:102E70008810FFF7B7FC80A002F043FBF8BD607834
:102E8000242833D173487A4B784A80A10090204699
:102E900004F088FC48B375480068754909688842A1
:102EA00008D172480068C10180227248083002F0DF
:102EB000E7FC11E081216F48083004F0E3FD611C5C
:102EC0006C48083004F034FD204604F055FD801EA7
:102ED0006849083100220A542521664880F8881084
:102EE000FFF780FC6EA002F00CFBC7E72046FFF75F
:102EF00092FF0546681C02D0A079232803D06DA05C
:102F000002F0FFFABAE77B223C212046FFF779FF67
:102F10007D223E212046FFF774FFE801C11700EB38
:102F200011510913B0EB013106D1EE01F11706EB97
:102F30001151081302F02CFD204604F01DFD401C29
:102F400086B2E9013246204602F0FFFC5AA002F0A8
:102F5000D8FA59A002F00CFB002002F058FB00BF89
:102F60008CE72DE9FF470446894692462E4901EB3E
:102F70000411A1F802902C4901EB0411A1F804A05E
:102F8000294901EB0411888807F0EEF80746002272
:102F90004A4B06F01DFF05460E46234901EB04117E
:102FA000488807F009FE80461F4800EB041081683E
:102FB000404607F047FF074607F036FC2A463346EF
:102FC000CDE9000106F004FFCDE9020106F012FE92
:102FD000154901EB0411C860394951F8240007F084
:102FE00023FC4B462246CDF800A0CDE9020135A1D5
:102FF000154804F0BFFA144802F083FABDE8FF87D1
:103000002DE9FC5F0646894692461F464FF00008B0
:10301000C34686F000460021304607F0E1FD5FD24E
:103020000020BDE8FC9F5BE0B802002038070020CC
:103030003800002040446F47726F7570202564206F
:103040004F4B210D0A000000380300201101002021
:10305000C800002008010020FC000020444F4E451D
:1030600021462A002C000020F8000020000100204A
:1030700004010020380B002040434C4541522050B1
:1030800052455F434D44204F4B2100003C244447B0
:10309000543A25642D25642C2564213E000000004F
:1030A00040534554205052455F434D44204F4B21DF
:1030B0000000000045000000410000000000344016
:1030C0005C020020232530336450253034645425BD
:1030D0003034642128252E3166290D0A00000000B5
:1030E0004FF0000B002412E0204607F04DFD019048
:1030F000F7480090524649463046019B03F033FFA3
:1031000020B9444500DAA0464FF0010B641E14F1CB
:10311000870FE9DABBF1000F1BD0404607F034FD02
:103120000190EB480090524649463046019B03F01F
:103130001AFF002508E0E648403050F825103A46CE
:103140002846FFF70EFF6D1C042DF4DB0120BDE8BF
:10315000FC9F0020FBE770B504460D4640F2DC50B2
:10316000431B04F2DC52DBA1E34804F003FAE2481B
:1031700002F0EFF970BD02680B6803600A607047E7
:1031800013B5012002F043FADDE90001884203DDB6
:1031900001A96846FFF7EFFF19E04FF48061D748B7
:1031A00004F04EFC0098C1018022D44802F068FB74
:1031B000D24802F0A6F9D2A002F0A3F9CF4802F05B
:1031C000D7F9CFA002F0D4F90098401C0090DDE9B7
:1031D00000018842E1DD002002F019FA1CBD012047
:1031E00080F3138800BF00BFC648006800F4E060A9
:1031F000C5490843001DC3490860BFF3408F00BFA5
:1032000000BFFEE72DE9F14F88B0C0A002F0A1F9A0
:10321000BFA1089800F055FF8346BBF1000F03D013
:10322000BDA002F06EF981E2BEA1089800F049FF4E
:103230008346BBF1000F24D00120BC4908704FF039
:10324000000A10E00020BA4901EB0A11C860B84931
:1032500001EB0A11886807F077FCB54901EB0A1108
:1032600048800AF1010ABAF1080FEBDBB1A002F0C5
:1032700070F900210846FFF76EFFFF20B049087083
:1032800054E2B0A1089800F01CFF8346BBF1000F88
:1032900026D006AAADA1089804F084FA0028C2D06E
:1032A0000020A349069A01EB0211C860A049069AC2
:1032B00001EB0211886807F047FC9D49069A01EB73
:1032C00002114880A4A18C48069A04F053F98A4858
:1032D00002F03FF94FF48061874804F0B1FB25E22A
:1032E000A1A1089800F0EDFE8346BBF1000F01D0CC
:1032F000FFF775FF9EA1089800F0E3FE8346BBF13F
:10330000000F0CD004AB05AA9BA1089804F04AFA60
:10331000002888D0DDE90410FFF732FF06E299A10A
:10332000089800F0CEFE8346BBF1000F0DD005AA31
:1033300096A1089804F036FA0028A1D001207B4914
:1033400008700598FFF7C6FCF0E193A1089800F01B
:10335000B8FE8346BBF1000F23D09148914B924AAF
:1033600092A10090089804F01DFA002888D001204E
:103370006E4908708C4800688A49096888420BD0F9
:10338000894800688D490860854800688C49086054
:10339000002066490870C9E183480068FFF79AFC7D
:1033A000C4E188A1089800F08CFE8346BBF1000FB1
:1033B0000CD004AB05AA85A1089804F0F3F9002805
:1033C0008DD0DDE90410FFF7C6FEAFE182A10898B9
:1033D00000F077FE8346BBF1000F44D080A002F0DE
:1033E000B8F84FF0000A3AE0824830F82A0000F2BC
:1033F000DC504F4901EB0A1148804FF4FA604C4908
:1034000001EB0A1188804A4901EB0A11888806F00D
:10341000ABFE06460022784B06F0DAFCCDE900014F
:10342000434901EB0A11488807F0C6FB07464048AC
:1034300000EB0A108168384607F004FD064607F0E5
:10344000F3F98046DDE9002306F0C2FC044606F0ED
:10345000D1FB374901EB0A11C8600AF1010ABAF140
:10346000080FC1DB62E165A1089800F02AFE8346DF
:10347000BBF1000F04D000210846FFF76CFE55E1B8
:1034800061A1089800F01DFE8346BBF1000F03D038
:103490005FA002F036F849E15EA1089800F011FE45
:1034A0008346BBF1000F11D005AA5CA1134804F0BC
:1034B00079F9002889D02249059808705AA002F0AD
:1034C00020F86421012000F04EFF2FE1B0E0000061
:1034D0004C0200207B233030365025303464543089
:1034E0003030302123303037502530346454303080
:1034F0003030217D00000000380300203807002014
:103500000D0A00000CED00E00000FA050D0A310084
:10351000244452532100000068656C6C6F20776F63
:103520007264210024445354210000001101002042
:10353000B802002023323535504453542100000096
:1035400010010020244453543A00000024445354F2
:103550003A25642100000000232530336450445391
:1035600054210D0A00000000245253542100000091
:10357000245054473A000000245054473A25642D03
:1035800025642100244447533A0000002444475353
:103590003A25642100000000244447543A0000000A
:1035A00008010020040100200001002024444754A9
:1035B0003A25642D25642C2564210000F8000020A4
:1035C000FC000020244443523A00000024444352AB
:1035D0003A25642C2564210024444A52210000002D
:1035E0002332353550313530305432303030210DC2
:1035F0000A000000C40B0020000034402443415264
:103600005F53544F5021000024474554412100008E
:103610004141410024534D4F4445000024534D4F38
:103620004445256421000000404F4B21000000006C
:10363000FEA1089800F045FD8346BBF1000F1ED0A7
:10364000FF20FE4908700A2000F017FDAFF21C10A1
:10365000FFF7F1F80A2000F010FDF9A001F051FF8A
:103660000A2000F00AFDAFF2400001F04AFF0A20F4
:1036700000F003FD6421012000F075FE56E0F8A182
:10368000089800F01EFD8346BBF1000F4ED002A843
:1036900003A904AB05AACDE90010F3A1089804F032
:1036A00081F8002842D0F5A001F02BFF039807F025
:1036B0006BFA0446049807F067FA0546059807F088
:1036C00063FA064622462946029BFFF799FC70B131
:1036D0000121052000F064FD322000F0CEFC002125
:1036E000052000F05DFD322000F0C7FC1EE0012146
:1036F000052000F055FD322000F0BFFC0021052020
:1037000000F04EFD322000F0B8FC0121052000F051
:1037100047FD322000F0B1FC0021052000F040FD03
:10372000322000F0AAFCDBA001F0EBFE09B0BDE8FE
:10373000F08F10B5DD48007848B3DD4800780128E7
:1037400003D1DC48FFF75EFD16E0D9480078022877
:1037500003D1D848FFF76FF80EE0D548007803286A
:1037600003D1D448FFF767F806E0D1480078042871
:1037700002D1D048FFF76DFB0020CD490870CB493E
:103780000870012240F22551CB48FDF708FB10BD1F
:1037900010B500F005FFC9490968401AB0F57A7FF5
:1037A00014D900F0FDFEC5490860C548007820B175
:1037B00000210D2000F0F4FC03E001210D2000F0B9
:1037C000EFFCBF480078C043BD49087010BD62B629
:1037D000704710B50121052000F0E2FC00210D200A
:1037E00000F0DEFC642000F048FC0021052000F021
:1037F000D7FC01210D2000F0D3FC642000F03DFC3B
:103800000121052000F0CCFC00210D2000F0C8FCB7
:10381000642000F032FC0021052000F0C1FC0121F1
:103820000D2000F0BDFC642000F027FC01210520E4
:1038300000F0B6FC00210D2000F0B2FC642000F086
:103840001CFC0021052000F0ABFC01210D2000F044
:10385000A7FC642000F011FC10BD10B5472144F610
:10386000206000F0D4FE10BD10B50020954908601E
:1038700026E095489349096830F8210000F2DC50B1
:103880009249904A126801EB021148808F498D4A93
:10389000126801EB0211488807F08EF98B49894ABA
:1038A000126801EB0211886000208849854A12687D
:1038B00001EB0211C86083480068401C8149086020
:1038C000804800680828D4DB7F488C3890F888004E
:1038D000252833D17C498439764804F029F87A4880
:1038E0008C38007A242804D177488438FFF78AFC82
:1038F00024E010207349086016E030216D48714AB9
:103900001268815402466F480068401C11546D488B
:103910000068801C11546B480068C01C1154694831
:1039200000680F3067490860624804F025F865496F
:1039300009688842E1D85F48FEF77DFF10BD10B5E9
:103940004FF4E13001F03EFA012240F22551604887
:10395000FDF725FA5FA001F00BFE62A001F0F9FD72
:1039600010BD10B54FF4E13001F0CDFA012240F264
:1039700025515148FDF713FA5EA001F0C2FD10BDBC
:1039800010B500F0F7FD10BD10B5012001F03FFEAD
:1039900001F081FEC0225B494B488C3801F070FF7A
:1039A00049488C3800685849884205D0084646493D
:1039B0008C3908600020486043488C38D0F8AC004F
:1039C000252817D000203F4908600AE000213E4822
:1039D0003C4A126840F822103A480068401C3949B5
:1039E0000860384800680828F0DB252136488C3804
:1039F000C0F8AC1000203349086099E032483149E2
:103A0000096830F8210000F2DC5081B22F482D4ABD
:103A1000126800EB021041802B492A4A126851F8C3
:103A2000221001F2DC5007F0AFF86FE024534D4153
:103A300052545F53544F50210000000010010020E9
:103A4000233030365031353030543030303021234F
:103A50003030375031353030543030303021000084
:103A6000244B4D533A000000244B4D533A25642C0F
:103A700025642C25642C25642100000054727920D3
:103A8000746F2066696E64206265737420706F7352
:103A90003A0D0A0043616E27742066696E642062E5
:103AA00065737420706F73212121000012010020C2
:103AB000130100203807002000380140BC0000201E
:103AC000C0000020F4000020C40B0020B802002039
:103AD00000480040756172743320636865636B2031
:103AE0006F6B210023323535503135303054323050
:103AF00030302100756172743120636865636B201A
:103B00006F6B210000F87F00E1EE3301FD49FE4AB2
:103B1000126801EB021188600020FA49FA4A126823
:103B200001EB0211C860F8480068401CF6490860C3
:103B3000F54800680828FFF661AF002001F067FD36
:103B400010BD10B500F0A7FB10BD10B500F04DFB87
:103B50000021052000F024FB10BD10B500F00CFB87
:103B600001210D2000F01CFB10BD10B500F0FAFA89
:103B700010BD10B500F08EFA10BD10B500F0BEFCFF
:103B800010BD08B5FFF7F9FFFFF7F3FFFFF7EDFFF3
:103B9000FFF7E3FFFFF7D9FFFFF7D3FFFFF7F4FECF
:103BA000FFF7EEFEFFF7DDFEFFF7C9FEFFF75CFE55
:103BB000FFF753FEFFF70DFEFFF709FE02F091F845
:103BC000D248D34BD34AD4490090D44803F0AEF93D
:103BD0000120D34908601AE0FFF7DAFDFFF7A9FDDD
:103BE000FFF79BF8FEF70FFECD48CEA10268D04844
:103BF00003F0C0FCCE4801F084FCC94800680128ED
:103C000005D0C7480068032801D002F0B0FCE3E704
:103C100010B502F024FE10BD10B500F0E8FB10BD99
:103C200010B54FF4E13001F01DF9012240F22551A9
:103C3000C048FDF7B4F8C0A001F077FC10BD10B586
:103C400000F0AEFCC0490968401A322800D210BD0D
:103C500000F0A6FCBC490860BC4800F01AFC00BF9C
:103C6000F5E72DE9F04107460E46002578783978CA
:103C700000EB0120B6490880B648008809888842D0
:103C80007ED0B3480088B4490880B1480088B14963
:103C900009880840AE4908800024EBE00120A040DC
:103CA000AB49098808426CD10120A040A949098884
:103CB00008427FD04FF48061A84803F0C1FE732E04
:103CC0000DD1A74951F8240003F056FE8046A448C0
:103CD00050F824104246A14803F06DFE10E0412E3A
:103CE0000DD1A04951F8240003F046FE80469D48BE
:103CF00050F824104246994803F05DFE00E0B7E01A
:103D000099A1964800F0DDF9C5B21DB10021681EE9
:103D1000924A115495A1914800F0D3F9F0B10022D4
:103D200040F225519248FDF73AF800209149087079
:103D30008A490B31904803F0FBFD8F49874803F017
:103D4000F7FD01208B490870012240F22551884877
:103D5000FDF725F801208949087026E088A17F48F1
:103D600000F0AFF908B3002240F225518048FDF77A
:103D700016F800207F49087078490B317E4802E030
:103D80008AE074E016E003F0D3FD7B49734803F04A
:103D9000CFFD012077490870012240F22551744877
:103DA000FCF7FDFF0220754908704FF6FF70694966
:103DB00008805CE04FF48061684803F041FE732E98
:103DC0000DD1674951F8240003F0D6FD80466448C0
:103DD00050F824104246614803F0EDFD10E0412EFA
:103DE0000DD1604951F8240003F0C6FD80465D48BE
:103DF00050F824104246594803F0DDFD00E037E05A
:103E000059A1564800F05DF9C5B285B35349481928
:103E100056A100F056F990B150484119564803F0A8
:103E200087FD554803F0A8FD401E534900220A545F
:103E30004A4803F07DFD4948FFF7E4F917E0474998
:103E400048194FA100F03DF988B1444841194A484A
:103E500003F06EFD484803F08FFD401E46490022E6
:103E60000A543E4803F064FD3C48FEF7E4FC00BF02
:103E7000601CC4B2102CFFF611AF374800883549DA
:103E800008800121052000F08BF90A2000F0F5F8E8
:103E90000021052000F084F9BDE8F08110B5394813
:103EA00000782A49C978884205D1364840782749A0
:103EB000097988420BD025484178C01CFFF7D1FE14
:103EC0002248C0782F49087020480079487010BDFA
:103ED00010B51E484078732800D010BD1B49097AE0
:103EE000C1F17F0000F032F9052802DA7F2017497E
:103EF000087216498979C1F17F0000F027F9052879
:103F000045DA41E0B8020020F40000204C02002015
:103F1000000016430000C4420000D2420000B44238
:103F20002C00002073746174653D25640D0A000047
:103F3000A40200200044004075617274322063685E
:103F400065636B206F6B2100D000002040020020D1
:103F5000EE000020EC000020F000002038070020D8
:103F60003C0000207C0000205E00000024000000D7
:103F70000038014012010020380300201301002006
:103F800023000000D40000207F20284988712748A2
:103F9000007AC0F17F00C00025490860234880797D
:103FA000C0F17F00C0002349086021480068B0F5D7
:103FB0007A7F04DD4FF47A701D4908601AE01C48CE
:103FC000006810F57A7F03DA1B481949086011E090
:103FD00018480068B0F57A7F04DD4FF47A7015490F
:103FE000086007E01348006810F57A7F02DA12488B
:103FF000104908600E48006810490968884205D1D8
:104000000C4800680E49096888420DD009480168CB
:1040100007480068FFF79FF80548006807490860EF
:10402000044800680649086000BF56E740020020C7
:10403000D8000020DC00002018FCFFFFE00000207A
:10404000E4000020704700BF0100A0F1010290B21F
:10405000FAD1704700BF0100A0F1010290B2FAD17D
:10406000704700B5034602E00620FFF7ECFF18009A
:10407000A3F101018BB2F7D100BD10B5044603E0F6
:104080004FF47A70FFF7EDFF2000A4F101018CB22C
:10409000F6D110BD002011E040F2DC512F4A02EBB6
:1040A000001251802E492D4A02EB0012916000212E
:1040B0002A4A02EB0012D160411CC8B20828EBDB8F
:1040C000704770B504460B4621461A4619E0087839
:1040D0001578A84214D10AE011F8015B12F8016BBF
:1040E000B54204D0D01A081A411C1A4602E01078D2
:1040F0000028F1D100BF107818B9081B80B270BD3C
:10410000491C08780028E2D100BFF8E7F0B50C465A
:10411000002117E00A464B1C07E050F8226050F8D7
:104120002370BE4200DD1A465B1CA342F5DB8A42C7
:1041300007D050F8225050F8216040F8226040F833
:104140002150491C661E8E42E4DCF0BD0146002968
:1041500001DD084670474842FCE70000B802002035
:104160000080BB4410B501210D20FCF767FC012144
:104170008848FCF780FA10BD08B501210820FCF73B
:104180005DFC4FF40050ADF8000010208DF80300E6
:1041900003208DF8020069467F48FCF79DF908BDB1
:1041A00070B504460D4635B10120A04081B27A4871
:1041B000FCF73DFA05E00120A04081B27648FCF70B
:1041C00038FA70BD10B57548007820B100210D2077
:1041D000FFF7E6FF03E001210D20FFF7E1FF6F4845
:1041E0000078C0436D49087010BD08B50121082052
:1041F000FCF724FC2020ADF8000010208DF803000F
:1042000003208DF8020069466348FCF765F908BD94
:1042100070B504460D46002616E001210520FFF783
:10422000BFFF00210D20FFF7BBFFA0B2FFF725FF66
:1042300000210520FFF7B4FF01210D20FFF7B0FF9B
:10424000A0B2FFF71AFF761CAE42E6D370BD70B580
:1042500004460D4635B10120A04081B25048FCF71C
:10426000E6F905E00120A04081B24D48FCF7E1F9F4
:1042700070BD70B504460D4635B10120A04081B235
:104280004848FCF7D4F905E00120A04081B2454838
:10429000FCF7CFF970BD08B501210C20FCF7CEFB6F
:1042A0004FF40140ADF8000003208DF8020010200B
:1042B0008DF8030069463A48FCF70EF94FF4767022
:1042C000ADF8000003208DF8020010208DF80300E7
:1042D00069463148FCF700F908BD70B504460D4643
:1042E000062C22D2DFE804F003080D12171C294621
:1042F0000320FFF755FF19E029460820FFF750FF7C
:1043000014E029460920FFF74BFF0FE0294606205D
:10431000FFF746FF0AE029460720FFF741FF05E0C7
:1043200029460420FFF73CFF00E000BF00BF70BD3E
:1043300008B501210C20FCF781FB4FF40060ADF8BB
:10434000000048208DF8030069461348FCF7C4F8C4
:104350000220ADF8000048208DF80300694610489F
:10436000FCF7BAF808BD70B505460C4600260EE00D
:1043700001210520FFF714FFA0B2FFF77EFE002108
:104380000520FFF70DFFA0B2FFF777FE761CAE42C7
:10439000EEDB70BD00023000000C01401401002073
:1043A00000080140001001401CB501210520FCF768
:1043B00045FB01214F48FCF75EF94FF4E040ADF8B2
:1043C000040010208DF8070003208DF8060001A9D5
:1043D0004948FCF781F84FF40040ADF80000282070
:1043E0008DF8030069464448FCF776F81CBD10B50B
:1043F000FFF7DAFF4FF400513F48FCF718F94FF48C
:1044000080413D48FCF713F94FF480513A48FCF7DE
:104410000EF910BD2DE9F04105462F460026002477
:1044200032E00120A040384205D04FF480413248AC
:10443000FCF7FDF804E04FF480412F48FCF7F9F851
:104440000120FFF70EFE4FF480512B48FCF7EFF8E8
:104450000A20FFF706FE4FF480512748FCF7E9F8E1
:104460000A20FFF7FEFD4FF480512348FCF7DFF8E8
:104470004FF400412048FCF7C0F818B10120A040DB
:104480003043C6B2601CC4B2082CCADB3046BDE85B
:10449000F08110B504464FF400511748FCF7C9F8F5
:1044A0000120FFF7B7FF20704220FFF7B3FF6070D5
:1044B0002078FFF7AFFFA0702078FFF7ABFFE07028
:1044C0002078FFF7A7FF20712078FFF7A3FF607126
:1044D0002078FFF79FFFA0712078FFF79BFFE07126
:1044E0002078FFF797FF20724FF400510248FCF745
:1044F0009EF810BD000430000008014010B5FCF724
:1045000037F94FF48030FCF753F9FCF790F9044683
:1045100000BF002CFDD00020FCF7CBF94FF48060E9
:10452000FCF7D0F90020FCF7D6F94FF4E0114FF476
:104530008030FCF7A1F90120FCF7AAF900BF39206F
:10454000FCF759F90028FAD00220FCF7A4F900BFC3
:10455000FCF7AAF90828FBD110BD000010B50446ED
:104560000021204606F03CFC01D2204610BD84F01C
:104570000040FBE700204FF0E0218861FB484861E4
:104580000846006940F007000861704700204FF0BE
:10459000E0218861F6480068401CF54908607047D2
:1045A000F348006870477FB504460D460121C802F4
:1045B000FCF744FAADF80840681E80B2ADF804007C
:1045C0000020ADF80A00ADF806008DF80C0001A936
:1045D000E848FCF7E1FD0121E648FDF7FFFB012279
:1045E0004121E448FDF74FF919208DF80000002023
:1045F0008DF801008DF8020001208DF80300684657
:10460000FCF789FA0121DB48FDF722F97FBD7FB570
:1046100005460C4601210846FCF71DFAADF8085086
:10462000ADF804400020ADF80A00ADF8060001A97D
:104630004FF08040FCF7B0FD00214FF08040FDF7C7
:1046400007FA012211469007FDF71DF91C208DF88D
:10465000000001208DF8010002208DF802000120E9
:104660008DF803006846FCF756FA01218807FDF72C
:10467000EFF87FBD7FB505460C4601210220FCF70F
:10468000EAF9ADF80850ADF804400020ADF80A0092
:10469000ADF8060001A9B848FCF77EFD0021B64838
:1046A000FDF7D6F901221146B348FDF7ECF81D20BD
:1046B0008DF8000003208DF8010001208DF8020024
:1046C0008DF803006846FCF726FA0121AA48FDF799
:1046D000BFF87FBD30B589B005460C4601210220E8
:1046E000FCF7B9F901210820FCF7A8F90320ADF87F
:1046F000200018208DF8230003208DF8220008A93F
:104700009E48FBF7E9FEADF81850ADF814400020C4
:10471000ADF81A00ADF8160005A99748FCF73CFD66
:104720006020ADF804000120ADF806000020ADF8CF
:104730000C004FF4FA70ADF80A0001A98E48FCF79E
:10474000F7FD08218C48FDF7C9F901A98A48FCF753
:104750003AFE08218848FDF7CAF901218648FDF78D
:1047600077F809B030BD30B589B005460C46012157
:104770000420FCF770F901210820FCF75FF94FF4E1
:104780004070ADF8200018208DF8230003208DF82C
:10479000220008A97948FBF79FFEADF81850ADF844
:1047A00014400020ADF81A00ADF8160005A97448B1
:1047B000FCF7F2FC6020ADF804000120ADF8060023
:1047C0000020ADF80C004FF4FA70ADF80A0001A912
:1047D0006B48FCF7ADFD08216948FDF77FF901A999
:1047E0006748FCF7F0FD08216548FDF780F90121D5
:1047F0006348FDF72DF809B030BD10B5044600211F
:10480000204606F0EDFA01D2204610BD84F00040AB
:10481000FBE72DE9F04704465A4901EB0411C8684B
:10482000002106F05DF94AD0564800EB0410458897
:1048300040F6BA10854201DD054604E0B5F5FA7F81
:1048400001DA4FF4FA754F4A02EB0412D1684D4A6F
:1048500002EB0412D06806F013F88046FFF7CDFF94
:104860000646284606F090F98146464800EB0410BB
:104870008168484606F0E6FA8046FFF7BEFF074625
:10488000314606F0ADF90CD8284606F07DF93D49D1
:1048900001EB0411886000203A4901EB0411C86063
:1048A0000DE0384A02EB0412D168364A02EB0412DA
:1048B000906805F0E5FF334901EB04118860BDE81D
:1048C000F08710B501218807FDF78BFA002841D049
:1048D00001218807FDF796FA2B480078082802D1B5
:1048E00000202949087029480078A0B92549264A9E
:1048F000127801EB0211886806F026F94FF080412A
:104900008885012120480078FFF7E7FC1E480078E1
:10491000FFF77FFF16E01B491B4A127801EB0211DB
:10492000886806F011F940F6C4110C1A09078C8545
:10493000002115480078FFF7D0FC13480078401C90
:10494000114908701148007808B9012000E00020E2
:104950000E49087010BD10B501210748FDF741FA56
:1049600018B101210448FDF74DFA10BD40190100AE
:1049700018010020002C014000040040000C014000
:1049800000080040B802002024010020230100207C
:1049900030B589B005460C46012140F60400FCF70D
:1049A0004DF84FF48070ADF8040048208DF80700F2
:1049B00003208DF8060001A9F348FBF78DFD1B20AD
:1049C0008DF8080000208DF8090001208DF80A00FC
:1049D0008DF80B0002A8FCF79EF819208DF808004E
:1049E00000208DF809008DF80A0001208DF80B00D9
:1049F00002A8FCF790F8ADF81050ADF80C4000207C
:104A0000ADF81200ADF80E0003A9E048FCF7C4FBB6
:104A10000020ADF818000220ADF81A000020ADF813
:104A20001E000120ADF81C000020ADF8200006A9F2
:104A3000D648FCF744FE0121D448FDF7CFF9022106
:104A4000D248FDF7CBF901220221D048FCF71BFF29
:104A50000121CE48FCF7FCFE09B030BD10B50121A4
:104A6000CA48FDF7BEF9012825D10121C748FDF745
:104A7000B5F9C7480078022805DAC5480078401C17
:104A8000C349087017E0C34800781F2813DD0020D1
:104A9000C1490870C1490870C1490870C14908700E
:104AA000C1490870BA490870BA490870002201214A
:104AB000B648FCF7E8FE10BD10B50221B348FDF77B
:104AC00090F9012815D10221B048FDF787F9B348C4
:104AD0000078002853D1B048007858B90021AB487D
:104AE000FDF74AF90021A948FDF764F80120AA4919
:104AF000087048E1A848007801281FD1A348FDF7B5
:104B000051F9AA4908800021A048FDF735F9022192
:104B10009E48FDF74FF8A5480088B0F5FA5F09DD1B
:104B2000A248008842F21071884203DA02209A49B2
:104B3000087028E100209849087024E19648007820
:104B40000228D6D19148FDF72DF999490880002116
:104B50008E48FDF711F99648008840F6AC5188421E
:104B600009DD9348008841F27C51884203DA012034
:104B70008A49087007E100208749087003E18548E9
:104B80000078202852DA8148FDF70CF9894908801D
:104B900000217E48FDF7F0F886480088B0F57A7F5E
:104BA0000CDA84480088B0F5166F07DD00207A49DA
:104BB00008707A49087077490870E4E07E48006818
:104BC00040007D4908607B48008840F2A46188422B
:104BD00005DD7948006840F00100774908606D48BC
:104BE0000078401C6B490870084600782028A0D146
:104BF00071480068000E714908706F480068000C29
:104C000048706D480088000A88706B480078C8704A
:104C100008468078C9780844FF288AD000205E4979
:104C200008705E4908705B490870ACE05C48007829
:104C3000B0B95648FDF7B6F85C49088000215348E2
:104C4000FDF79AF800215148FCF7B4FF01205C49B8
:104C5000087000204E49087001205149087073E027
:104C60004F480078012822D14848FDF79BF84F496A
:104C7000088000214548FDF77FF802214348FCF7F2
:104C800099FF4A480088B0F5FA5F09DD4748008877
:104C900042F21071884203DA02204149087053E061
:104CA00000203F49087001203F4908704CE03C4813
:104CB0000078022822D13548FDF774F83C49088075
:104CC00000213248FDF758F83948008840F2A461C5
:104CD00088420CDD36480088B0F5166F07DA0021EF
:104CE0002A48FCF767FF03202D4908702CE00020BC
:104CF0002B49087001202C49087025E028480078CD
:104D0000032821D12148FDF74DF8284908800021CA
:104D10001E48FDF731F802211C48FCF74BFF2348E1
:104D20000088B0F5FA7F09DD2048008840F28A212A
:104D3000884203DA01201B49087002E001201A4969
:104D400008700020164908701648007848B1002005
:104D5000144908700E490870012211460B48FCF7EF
:104D600092FD1148007870B100200B4908700B4982
:104D700008700B4908700B4908700B49087004490A
:104D800008700449087010BD00080140002C014063
:104D900021010020220100201C0100201D01002013
:104DA0001E0100201F010020200100202C010020F6
:104DB0002E010020300100202801002038020020B0
:104DC0003C02002010B586B0044601210820FBF704
:104DD00035FE01218804FBF73EFE4FF48060ADF8FC
:104DE000140018208DF8170003208DF8160005A96F
:104DF000FE48FBF771FB4FF40060ADF8140004208F
:104E00008DF8170005A9F948FBF766FB019400200F
:104E1000ADF80800ADF80A00ADF80C00ADF81000D0
:104E20000C20ADF80E0001A9F148FBF720FF272068
:104E30008DF8000001208DF8010003208DF802009C
:104E400001208DF803006846FBF765FE012240F261
:104E50002551E748FBF7A3FF0121E548FBF793FF46
:104E600006B010BD10B586B0044601210420FBF742
:104E7000E5FD01214804FBF7EEFDDE48FBF7B4FE3B
:104E80000420ADF8140003208DF8160018208DF8CA
:104E9000170005A9D848FBF71FFB0820ADF8140040
:104EA00004208DF8170005A9D348FBF715FB0194E2
:104EB0000020ADF80800ADF80A00ADF80C00ADF820
:104EC00010000C20ADF80E0001A9CA48FBF7CFFE78
:104ED00026208DF8000001208DF8010002208DF8B9
:104EE000020001208DF803006846FBF714FE012242
:104EF00040F22551BF48FBF752FF0121BD48FBF7A7
:104F000042FF06B010BD10B588B00446012144F23E
:104F10000400FBF793FDB948FBF766FE4FF4007001
:104F2000ADF81C0003208DF81E0018208DF81F001E
:104F300007A9B148FBF7D0FA4FF48060ADF81C0028
:104F400004208DF81F0007A9AB48FBF7C5FA0394AE
:104F50000020ADF81000ADF81200ADF81400ADF867
:104F600018000C20ADF816000020ADF80400ADF8D4
:104F700006004FF40070ADF808000020ADF80A00FC
:104F800001A99E48FBF7E8FE03A99C48FBF76FFECA
:104F90004FF4E060FBF7BAFD25208DF800000120FA
:104FA0008DF801008DF802008DF803006846FBF7CC
:104FB000B2FD012240F225519048FBF7F0FE01219D
:104FC0008E48FBF7E0FE08B010BD10B54FF4E1309D
:104FD000FFF799FF012240F225518848FBF7DFFED9
:104FE0004FF4E130FFF73EFF012240F225518148A6
:104FF000FBF7D5FE4FF4E130FFF7E4FE012240F26B
:1050000025517B48FBF7CBFE62B610BD10B50446B8
:1050100021467A48FBF724FF10BD70B505460E46C1
:10502000002400BF0CE0295D7448FBF719FF00BFA6
:1050300080217248FBF782FF0028F9D0601C84B2FF
:10504000B442F0DB70BD10B504460BE014F8011B50
:105050006A48FBF705FF00BF80216848FBF76EFF39
:105060000028F9D020780028F0D110BD10B50446F2
:1050700021466048FBF7F4FE10BD70B505460E46AC
:10508000002400BF0CE0295D5A48FBF7E9FE00BF91
:1050900080215848FBF752FF0028F9D0601C84B2E9
:1050A000B442F0DB70BD10B504460BE014F8011BF0
:1050B0005048FBF7D5FE00BF80214E48FBF73EFF6E
:1050C0000028F9D020780028F0D110BD10B5044692
:1050D00021464748FBF7C4FE10BD70B505460E4695
:1050E000002400BF0CE0295D4148FBF7B9FE00BF7A
:1050F00080213F48FBF722FF0028F9D0601C84B2D2
:10510000B442F0DB70BD10B504460BE014F8011B8F
:105110003748FBF7A5FE00BF80213548FBF70EFF9F
:105120000028F9D020780028F0D110BD10B540F249
:1051300025513248FBF702FF012856D140F2255194
:105140002E48FBF73BFF2D48FBF78EFEC4B22C48E0
:10515000007808B1002010BD3C2C06D1042029495C
:10516000087000202849088019E026480078B0B966
:10517000242C03D101202349087010E0232C03D1F3
:105180000220204908700AE07B2C03D103201D492E
:10519000087004E03C2C02D104201A4908702A2C23
:1051A0000DD11A480068012802D102201749086071
:1051B00016480068032802D10420144908601248E8
:1051C00001880088401C104A1080114844540D4842
:1051D000007804281ED13E2C1CD100200C491288D6
:1051E000885401200649087040E047E0000C014067
:1051F00000480040004400400008014000380140E1
:105200001201002013010020320100202C00002098
:1052100038070020E048007801280AD1212C08D165
:105220000020DE49DE4A128888540120DD490870DA
:105230001CE0D948007802280AD1212C08D100208E
:10524000D649D74A128888540120D64908700DE003
:10525000D1480078032809D17D2C07D10021CF48FF
:10526000CF4A128881540120CE490870CC4800886A
:10527000B0F5806F02DB0020C949088000206AE792
:1052800010B540F22551C848FBF758FE012878D1E7
:1052900040F22551C448FBF791FEC348FBF7E4FDFB
:1052A000C4B23C2C06D10420BB4908700020BF4981
:1052B00008801CE0B8480078C8B9242C03D101202C
:1052C000B549087010E0232C03D10220B2490870C0
:1052D0000AE07B2C03D10320AF49087004E03C2C8A
:1052E00002D10420AC4908700020B0490880AF48C2
:1052F00001880088401CAD4A1080A8484454A64844
:105300000078042809D13E2C07D10020A349128837
:1053100088540120A34908702BE09F480078012899
:105320000AD1212C08D100219C48A04A128881541E
:1053300001209C4908701CE09748007802280AD197
:10534000212C08D100219548984A128881540120C7
:10535000944908700DE090480078032809D17D2C0D
:1053600007D100208D49914A1288885401208D4927
:1053700008708E480088B0F5806F02DB00208B49F2
:105380000880002010BD10B540F225518848FBF779
:10539000D5FD01287ED140F225518548FBF70EFE50
:1053A0008348FBF761FDC4B27E48007808B1002055
:1053B00010BD3C2C06D104207749087000207D499F
:1053C00008801CE074480078C8B9242C03D101205F
:1053D0007149087010E0232C03D102206E49087037
:1053E0000AE07B2C03D103206B49087004E03C2CBD
:1053F00002D104206849087000206E4908802A2CD8
:1054000018D101210520FEF7CBFE3220FEF735FE34
:1054100000210520FEF7C4FE67480068012802D17C
:1054200002206549086064480068032802D104200E
:10543000614908602B2C0DD101210520FEF7B0FE3B
:105440003220FEF71AFE00210520FEF7A9FE0120FA
:1054500059490860412C02D1412058490870422C1A
:1054600002D1422055490870524801880088401CEA
:10547000504A1080494844544748007804280AD1CB
:105480003E2C08D100204549128888540120454906
:1054900008702CE033E04048007801280AD1212C24
:1054A00008D100203D49434A1288885401203D49D3
:1054B00008701CE03848007802280AD1212C08D155
:1054C000002036493B4A128888540120354908702B
:1054D0000DE031480078032809D17D2C07D1002048
:1054E0002E49344A1288885401202E4908703148C8
:1054F0000088B0F5806F02DB00202E490880002074
:1055000056E710B504462046FFF79DFD10BD70B567
:1055100004460D4629462046FFF77FFD70BD10B5B5
:1055200004462046FFF772FD10BD10B50446204624
:10553000FFF7B9FD10BD70B504460D46294620465B
:10554000FFF79BFD70BD10B504462046FFF78EFDAA
:1055500010BD10B504460120124908702046FFF71F
:10556000D2FD2046FFF76FFD00200E49087010BDE8
:1055700010B504462046FFF7C6FD10BD70B50446C1
:105580000D4629462046FFF7A8FD70BD10B504461C
:105590002046FFF79BFD10BD1301002038070020B7
:1055A000320100201201002000440040340100209C
:1055B00000480040360100202C000020400100205F
:1055C00070B50546002405E0601CC4B2C82C01DD9E
:1055D000002070BD0221FE48FCF767FD0028F3D0D3
:1055E0002946FB48FCF70EFD002405E0601CC4B210
:1055F000C82C01DD0020ECE70121F548FCF755FD42
:105600000028F3D0F248FCF7FFFCC0B2E1E710B588
:105610000446ACB14FF40050EE4908801820C87021
:10562000ED48FAF759FF4FF40051EB48FAF7FFFF46
:105630000121E748FCF7B5FCFF20FFF7C1FF0EE0B2
:105640000021E348FCF7ADFC4FF40050E14908802D
:105650001020C87003208870DF48FAF73DFF10BDA6
:10566000002106E00A2100BF0A00A1F1010399B25E
:10567000FAD10200A0F1010398B2F3D1704710B53E
:105680000020D6498881D248FCF7E6FB0121D048AA
:10569000FCF787FC10BD08B501210820FBF7CEF907
:1056A0004FF48050ADF8000010208DF80300032067
:1056B0008DF802006946C848FAF70EFF4FF4805192
:1056C000C548FAF7B4FF4FF42040ADF800001820A9
:1056D0008DF803006946C048FAF7FEFE4FF480409B
:1056E000ADF8000048208DF803006946BA48FAF783
:1056F000F3FE4FF42041B848FAF799FF01218803DF
:10570000FBF7A9F90020B54908804FF48270488062
:10571000002088800220C880012008814002488142
:10572000382088810020C88107200882A848FCF71B
:1057300093FB0121A648FCF734FCFF20FFF740FF54
:10574000FFF79DFF08BD10B53020A4498881A0480F
:10575000FCF782FB01219E48FCF723FC10BD10B52D
:10576000002400224FF480519B48FAF764FF9020F8
:10577000FFF726FF0020FFF723FF0020FFF720FFA1
:105780000020FFF71DFFFF20FFF71AFF44EA002467
:10579000FF20FFF715FF0443012211038E48FAF79B
:1057A0004AFF204610BD10B5002400224FF480515E
:1057B0008948FAF740FF0520FFF702FFFF20FFF7B7
:1057C000FFFE0446012211038348FAF734FF204606
:1057D00010BD10B5044600224FF480517E48FAF700
:1057E0002AFF0120FFF7ECFE2046FFF7E9FE012229
:1057F00011037948FAF71FFF10BD10B500224FF4CE
:1058000080517548FAF717FF0620FFF7D9FE0122ED
:1058100011037148FAF70FFF10BD10B500224FF4C5
:1058200080516D48FAF707FF0420FFF7C9FE0122F7
:1058300011036948FAF7FFFE10BD10B504460022B7
:105840004FF480516448FAF7F6FE0320FFF7B8FEE4
:10585000C4F30740FFF7B4FEC4F30720FFF7B0FE20
:10586000E0B2FFF7ADFEFF20FFF7AAFE5C4908702B
:10587000012211035848FAF7DEFE5948007810BD9E
:105880002DE9F04106460C46174600224FF48051A0
:105890005148FAF7D0FE0320FFF792FEC4F3074009
:1058A000FFF78EFEC4F30720FFF78AFEE0B2FFF792
:1058B00087FE002505E0FF20FFF782FE7055681C7B
:1058C00085B2BD42F7DB012211034348FAF7B3FE6C
:1058D000BDE8F08110B500BFFFF765FF10F0010FC4
:1058E000FAD110BD2DE9F04107460C461646E0B24C
:1058F000C0F58078464500DD4646FFF77EFF002272
:105900004FF480513448FAF796FE0220FFF758FE14
:10591000C4F30740FFF754FEC4F30720FFF750FE1F
:10592000E0B2FFF74DFE002504E0785DFFF748FE8A
:10593000681C85B2B542F8DB012211032648FAF74C
:105940007AFEFFF7C7FFBDE8F0812DE9F041074679
:105950000E461446F0B2C0F58075AC4200DC254618
:1059600012E02A4631463846FFF7BCFFAC4200D170
:105970000BE02F442E44601B84B2B4F5807F02DD1F
:105980004FF4807500E02546EBE700BFBDE8F081ED
:1059900010B504462403FFF730FFFFF79BFF0022FA
:1059A0004FF480510C48FAF746FE2020FFF708FE1E
:1059B000C4F30740FFF704FEC4F30720FFF700FE1F
:1059C000E0B2FFF7FDFD0122110303480AE00000E9
:1059D000003800403A010020000C0140F80B002084
:1059E00038010020FAF727FEFFF774FF10BD2DE9FC
:1059F000F04781460F4616464FEA1738C7F30B0AA1
:105A0000CAF58054A64200DC344644E04FEA08312F
:105A10004FF480528A48FFF733FF002508E00AEB75
:105A200005008749085CFF2800D003E0681C85B2A8
:105A3000A542F4DB00BFA54216DA4046FFF7A8FFF7
:105A4000002507E019F8050005EB0A017C4A5054CF
:105A5000681C85B2A542F5DB4FEA08314FF480524D
:105A60007748FFF772FF04E0224639464846FFF7C1
:105A70006CFFA64200D10FE008F101084FF0000AC8
:105A8000A1442744301B86B2B6F5805F02DD4FF497
:105A9000805400E03446B9E700BFBDE8F0872DE947
:105AA000F04107460C461546C4F30B00C0F580567E
:105AB000B54200DD35462A4621463846FFF745FF08
:105AC000BDE8F0812DE9F04381B0ADF5805D804601
:105AD0000F4616464FF00009C7F30B00C0F580547F
